S0210000584D4547415F413342555F58504C41494E45445F44454D4F312E73726563BE
S1130000ECC300000BC4000009C4000007C40000D6
S113001005C4000003C4000001C40000FFC30000C5
S1130020FDC30000FBC30000F9C300000C9451267B
S1130030F5C30000F3C300000C9486260C94B32689
S11300400C94E0260C940D270C943A270C94672703
S11300500C9494270C94C1270C94EE270C941B2821
S1130060DDC30000DBC30000D9C30000D7C3000018
S1130070D5C30000D3C30000D1C30000CFC3000028
S1130080CDC30000CBC30000C9C30000C7C3000038
S1130090C5C30000C3C30000C1C300000C945A23AD
S11300A00C948C230C94BE230C94F023B7C300004F
S11300B0B5C30000B3C30000B1C300000C940A2A06
S11300C00C94372A0C94642A0C94912A0C94BE2A1A
S11300D00C94EB2A0C94182B0C94452B0C94722B37
S11300E00C949F2B9BC3000099C3000097C300008E
S11300F095C3000093C3000091C300008FC30000A8
S11301008DC300008BC3000089C3000087C30000B7
S113011085C3000083C3000081C300000C949222B5
S11301200C94C4220C94F6220C94282377C3000068
S113013075C300000C9448280C9475280C94A228CC
S11301400C94CF280C94FC280C9429290C9456293F
S11301500C9483290C94B0290C94DD295FC300000E
S11301605DC300005BC3000059C3000057C3000017
S113017055C3000053C3000051C300004FC3000027
S11301804DC300004BC3000049C3000047C3000037
S113019045C3000043C3000041C300003FC3000047
S11301A03DC300003BC3000039C3000037C3000057
S11301B00C94CC2B0C94F92B0C94262C0C94532CCF
S11301C00C94802C0C94AD2C29C3000027C3000090
S11301D025C3000023C3000021C300001FC3000087
S11301E01DC300001BC3000019C3000017C3000097
S11301F015C300000C94E7350C949F36C830CB30FF
S1130200CE30D130D430D730DA30FF7E3C18FF7E88
S11302103C18183C7EFF0000000000000020202055
S113022020200020505050000000005050F850F89A
S113023050502078A07028F020C0C8102040981892
S11302406090A040A890686020400000000010204A
S1130250404040201040201010102040005020F852
S1130260205000002020F820200000000000602022
S113027040000000F8000000000000000060600082
S1130280081020408000708898A8C88870206020DA
S113029020202070708808102040F8F810201008E2
S11302A0887010305090F81010F880F008088870AA
S11302B0304080F0888870F80810204040407088F2
S11302C08870888870708888780810600060600082
S11302D06060000060600060204008102040201032
S11302E0080000F800F800008040201020408070D2
S11302F088081020002070880868A8A87070888872
S113030088F88888F08888F08888F07088808080F1
S11303108870E09088888890E0F88080F08080F889
S1130320F88080E0808080708880809888708888D9
S113033088F88888887020202020207038101010B9
S11303401090608890A0C0A0908880808080808079
S1130350F888D8A8888888888888C8A898888870E1
S1130360888888888870F08888F080808070888881
S113037088A89068F08888F0A090887880807008B9
S113038008F0F82020202020208888888888887019
S113039088888888885020888888A8A8D8888888E9
S11303A0502050888888885020202020F808102069
S11303B04080F83820202020203800804020100879
S11303C000E02020202020E02050880000000000D1
S11303D00000000000F84020100000000000007041
S11303E0087888788080B0C88888F00000708080A1
S11303F088700808689888887800007088F8807089
S1130400304840E0404040000078887808308080E0
S1130410B0C8888888200060202020701000301028
S113042010906040404850605048602020202020B8
S1130430700000D0A8A888880000B0C88888880008
S11304400070888888700000F088F0808000006860
S1130450987808080000B0C8808080000070807020
S113046008F04040E04040483000008888889868A0
S11304700000888888502000008888A8A8500000C0
S11304808850205088000088887808700000F81090
S11304902040F81020204020201020202020202060
S11304A02040202010202040088942183DBC1842DA
S11304B091103C7EFF8180100A021A021A020A106F
S11304C06050A09884828C844C300D0A57656C630C
S11304D06F6D6520746F2074686520584D454741E1
S11304E02D413342552058706C61696E6564204417
S11304F0656D6F2043444320696E74657266616361
S113050065210D0A0D0A4B65792062696E64696E76
S1130510677320666F72204C4344206D656E7520AE
S1130520636F6E74726F6C3A0D0A2020456E7465A9
S1130530722020202020203A20456E7465720D0A16
S113054020204261636B737061636520203A20420E
S113055061636B0D0A20204172726F772055702001
S113056020203A2055700D0A20204172726F7720A6
S1130570446F776E203A20446F776E0D0A00446111
S1130580746520696E76616C6964004D696E75747A
S11305906500486F757200446179004D6F6E746830
S11305A00059656172005365742054696D657A6FF2
S11305B06E65005365742054696D6500536574203D
S11305C0446174650053686F7720446174652654F0
S11305D0696D6500446174652654696D6500546FE6
S11305E067676C65204261636B6C6967687400447B
S11305F061746520262054696D650050726F6475BE
S11306006374696F6E2044617465004C6967687433
S113061073656E736F720054656D70657261747585
S11306207265004D61696E204D656E750054656D8F
S11306307065726174757265002B3435206D696E56
S1130640002B3330206D696E002B3135206D696EBF
S1130650002030206D696E0054696D657A6F6E6597
S1130660206D696E757465733A002B31323A2046F9
S1130670696A69002B31313A20536F6C6F6D6F6E6C
S11306802049736C616E64002B31303A204145532C
S11306905400202B393A20546F6B796F00202B388B
S11306A03A20486F6E67204B6F6E6700202B373AF5
S11306B020546861696C616E6400202B363A2042D4
S11306C0616E676C616465736800202B353A205055
S11306D0616B697374616E00202B343A204D6F7323
S11306E0636F7700202B333A204E6169726F626921
S11306F000202B323A20497374616E62756C0020BD
S11307002B313A204F736C6F2C204265726C696EEA
S1130710005554433A20554B2028474D5429002076
S11307202D313A20507261696100202D323A2053F4
S11307306F7574682047656F7267696100202D3397
S11307403A20477265656E6C616E6400202D343A00
S11307502045435400202D353A2045617374657259
S11307606E00202D363A2043656E7472616C002051
S11307702D373A204D6F756E7461696E00202D38E7
S11307803A205061636966696300202D393A20413B
S11307906C61736B61002D31303A20486177616977
S11307A069002D31313A204B696E676D616E2052BC
S11307B0656566002D31323A2042616B65722049CD
S11307C0736C616E640054696D657A6F6E65206840
S11307D06F75727320555443000011241FBECFEF70
S11307E0CDBFDFE5DEBF00E00CBF12E2A0E0B0E267
S11307F0EEEAFAE800E00BBF02C007900D92AA36B9
S1130800B107D9F72BE2AAE6B2E201C01D92AE39D4
S1130810B207E1F70E94C23C0C945545F1CB80939A
S1130820A2066093A2068093A5066093A606609331
S1130830A10608953F936093A2068093A106809336
S1130840A2066093A1063F918091A806842308958F
S11308508093A6068093A1060895A1E0B0E0E3E3A7
S1130860F4E00C944442E82F0FB700781982809189
S11308706A22813019F081E080936A22CE2EDD2431
S1130880F601E455FD4DB080F601E055FD4DA08024
S1130890F894BB2009F4AAC08B2DDADF8B2D6A2DC6
S11308A0BEDF1B2DEE24FF2460E0812C30E2932E6A
S11308B0F5FE07C09091AD228091AC22982B19F5DA
S11308C035C08FB7802B8FBF0000F8948B2D6A2D15
S11308D0412FB0DF682F0894E11CF11C80910020A7
S11308E08F5F80930020823030F0823021F083309B
S11308F011F0109200206623D9F22091AD2280914C
S1130900AC22282B15C0412F80E040FF09C0E82FFE
S1130910F0E0EE0FFF1FEB58FD4D8082918201C085
S113092090FD8F5F96954695992379F710E020E026
S11309308FB7802B8FBF10926B22222309F43FC004
S1130940112309F43CC03091B1228091B022382B9C
S1130950562F90E080E070E040E023C050FD17C0C7
S113096019C030FF13C0981781F4E42FF0E0EE0FA4
S1130970FF1FEB58FD4DE082F182852F8E7F19F425
S1130980892F71E008C0892F06C08F5F3695332305
S113099041F701C020FD9F5F20FD4F5F56952695CE
S11309A011F05523D9F640936B22609516237130CC
S11309B021F4112311F4EE24FF2460E013C080918C
S11309C0AD229091AC22892B898390E006C0898165
S11309D080FD9F5F89818695898389818823B9F702
S11309E090936B22F894112309F062CF8CEA92E27F
S11309F0C80ED91EF60180812BDF8FB7082B0FBFDD
S1130A002196ECE00C945D42FC0180E290E080834E
S1130A1091831282138280E394E084839583089502
S1130A209091A622A92FB0E0FD01EE0FFF1FEA0F5F
S1130A30FB1FEE0FFF1FE257FD4D43836770858355
S1130A402370660F660F660F262B24839F5F909397
S1130A50A62208951F93CF93DF93282FC82FD0E0A9
S1130A60FE01EE0FFF1FEC0FFD1FEE0FFF1FE257FD
S1130A70FD4D3581838190E000906E2202C09595F2
S1130A8087950A94E2F7182F843008F414E08091D3
S1130A90A622281718F020E030E02DC0832F1DD1A6
S1130AA09C01412F50E016951695812F90E0841BF0
S1130AB0950B8217930764F4FE01EE0FFF1FEC0FF2
S1130AC0FD1FEE0FFF1FE257FD4D84818B7F848352
S1130AD088279927841B950B8217930764F0FE01DE
S1130AE0EE0FFF1FEC0FFD1FEE0FFF1FE257FD4D32
S1130AF0848184608483C901DF91CF911F9108951B
S1130B00FF920F931F93CF93DF931092862210923C
S1130B10872220918A2230918B2280938A2290937B
S1130B208B2240918C2250918D22421B530B480FF3
S1130B30591FFF2403C0F394485C5040483C5105BE
S1130B40D0F740938C2250938D228091A722882342
S1130B5041F08F1518F41092A72203C08F198093C7
S1130B60A722AAD3E0918822F0918922309709F034
S1130B70199510E000E005C0812F6F2DC3D0082B1C
S1130B801F5F6091A6221617B8F3002349F08091E5
S1130B908622909187229160809386229093872267
S1130BA010928522AEE8B2E230E041E050E017C096
S1130BB08C91887191F0E32FE695E695E695F0E047
S1130BC0EB58FD4D832F8770EA0102C0CC0FDD1F67
S1130BD08A95E2F720892C2B208B3F5F16963617D7
S1130BE038F38091862290918722CDB7DEB7E5E075
S1130BF00C9464421092A62284E080936F2294E1C4
S1130C009093722285E080937322109271229093C4
S1130C10702281E080936E2283E0809374223BD320
S1130C20109288221092892208951F9310E003C025
S1130C30812F27D01F5F8091A6221817C8F31F9118
S1130C400895EF92FF921F93CF93DF93EC017B0102
S1130C5010E003C0812F15D01F5F8091A6221817C2
S1130C60C8F310928A2210928B22C0936C22D093E4
S1130C706D22C7010BD3DF91CF911F91FF90EF90AD
S1130C80089590E0EEE8F2E29C01220F331F280F52
S1130C90391FD901AA0FBB1FAE0FBF1F15964C9168
S1130CA01597809186229091872282608093862274
S1130CB0909387222F5F3F4F220F331FE20FF31FC2
S1130CC01082E8EAF2E2E40FF11D80E8808381E01B
S1130CD08C938FE011968C93089590E0FC013496E8
S1130CE0A5E7B2E2EE0FFF1FEA0FFB1F880F991F63
S1130CF0A80FB91F208131818D919C91281B390B3C
S1130D00C9010895A0E0B0E0E8E8F6E00C9442429E
S1130D10782EF62E9FDE5C01072D10E0F801EE0F11
S1130D20FF1FE00FF11FEE0FFF1FE257FD4D54812F
S1130D304381242F30E0852F837090E0019602C018
S1130D40359527958A95E2F7822F223008F482E0C0
S1130D50242F30E0B901681B7109F801EE0FFF1F61
S1130D60E00FF11FEF01CC0FDD1FC257DD4D88816D
S1130D70843009F4F7C0853030F4813071F082306A
S1130D8009F07DC26EC0803109F4A1C1803209F43A
S1130D9042C2883009F073C2EEC14091862250915C
S1130DA08722CA01926080938622909387228D8144
S1130DB06981A82FB0E06A3060F0AA0FBB1FFD0163
S1130DC0EB58FD4D80819181A358BD4D8D939C932B
S1130DD018C0AA0FBB1FFD01E358FD4D20813181CE
S1130DE0AB58BD4D8D919C918217930718F42150F7
S1130DF0304005C02817390750F42F5F3F4F208338
S1130E003183486052604093862250938722862F14
S1130E108150F801EE0FFF1FE00FF11FEF01CC0F1F
S1130E20DD1FC257DD4D89838823B1F4AD8182E093
S1130E308883809186229091872282608093862283
S1130E4090938722EE0FFF1FE057FD4D1082B0E014
S1130E50A855BD4D80E88C93809170228093A72281
S1130E600CC252FF04C080E288831982F7C1C50115
S1130E70B7FE02C080E090E08217930780F0F8018B
S1130E80EE0FFF1FE00FF11FEE0FFF1FDF01A25750
S1130E90BD4D84E08C93E057FD4D1082E5C1FF20E9
S1130EA009F4EDC18091A722882309F0E8C1F80173
S1130EB0EE0FFF1FE00FF11FEE0FFF1FE257FD4D76
S1130EC0858190E0EC01CC0FDD1FC358DD4D2881F6
S1130ED03981FC01EE0FFF1FEB58FD4D0190F081AD
S1130EE0E02D2E173F0788F4FC01E855FD4D908155
S1130EF09F0D9083809173228058981708F4BFC186
S1130F0080E880832F5F3F4F14C0DC01A855BD4D9E
S1130F10E217F307D0F48C918F198C9340E89091E9
S1130F207222542F591B581708F4A9C14C9321500D
S1130F30304028833983809186229091872288606B
S1130F4080938622909387229AC12C91213810F0A5
S1130F5021502C93FC01E855FD4D808187FD8FC104
S1130F608F5F57C1C501B7FE02C080E090E0F80171
S1130F70EE0FFF1F8217930708F48FC08091702231
S1130F808093A7229F01200F311F220F331FD90105
S1130F90A057BD4D8C918F5F8C93F901E257FD4DA5
S1130FA0848190E08873907023E0969587952A95C4
S1130FB0E1F7682E882309F43EC0DD24CC247F01A8
S1130FC083E090E0E80EF91E4D012FC0D71461F1C3
S1130FD08D2D90E0EC01CC0FDD1FC80FD91FCC0F75
S1130FE0DD1FC257DD4D8C8190E08873907073E0F3
S1130FF0969587957A95E1F76816B1F48D2D2ADDDB
S11310002B81821B9109F7012081A501421B510903
S1131010481759072CF08881803111F0883021F469
S1131020F4011082CC24C394D3948091A622D816C0
S113103068F2CC2079F480916F22882359F0809152
S113104086229091872298608093862290938722AB
S113105041E001C040E09801220F331F200F311FEF
S1131060F901EE0FFF1FE057FD4D908180916F2233
S1131070981708F405C18091862290918722836095
S11310808093862290938722F901EE0FFF1FE25787
S1131090FD4D80E180831182F3C0E00FF11FEE0F5C
S11310A0FF1FDF01A257BD4D15962C91159782E0C5
S11310B08C938091862290918722826080938622ED
S11310C090938722E057FD4D1082E22F9EC0C50108
S11310D0B7FE02C080E090E0F801EE0FFF1F4091E0
S11310E08622509187228617970770F4E00FF11F2C
S11310F0EE0FFF1FE257FD4D88E08083546040935C
S113110086225093872231C04160409386225093B7
S11311108722E00FF11FEE0FFF1FE057FD4D908176
S113112080916F22981710F49F5F908390917122A1
S1131130992371F0F801EE0FFF1FE00FF11FEE0F7E
S1131140FF1FE257FD4D8181891720F48F0D8183A4
S113115040E00CC0872D95DD8091862290918722F6
S11311609260809386229093872241E0809170223E
S11311708093A72285C0809170228093A722DF01EB
S1131180AA0FBB1FA057BD4D8C91882389F1C501BF
S1131190B7FE02C080E090E0409186225091872201
S11311A06817790790F4F801EE0FFF1FE00FF11FA5
S11311B0EE0FFF1FE257FD4D80E1808341604093B5
S11311C086225093872240E006C0546040938622D2
S11311D05093872241E0F801EE0FFF1FE00FF11F4B
S11311E0EE0FFF1FE057FD4D80818150808348C082
S11311F0ED8182E0888380918622909187228260AB
S113120080938622909387221C92F0E0E855FD4D4E
S113121080E8808334C099819F5F99838C8182FDAB
S113122017C0AD8182E088838091862290918722C5
S113123082608093862290938722EE0FFF1FE057EF
S1131240FD4D1082B0E0A855BD4D80E88C9317C0C9
S113125080917422981740F0872D13DD80918622A7
S113126090918722906105C0809186229091872277
S11312709460809386229093872241E001C040E0ED
S1131280842FCDB7DEB7EEE00C945B42FC010097EF
S113129009F0199508951092AC221092AD22109283
S11312A0B0221092B1221092AE221092AF2210926C
S11312B0B2221092B32208958091AE229091AC2272
S11312C0892B41F0E0916C22F0916D22309711F05E
S11312D080E019958091AF229091AD22892B41F045
S11312E0E0916C22F0916D22309711F081E0199514
S11312F00895CF93DF931F921F92CDB7DEB761306D
S113130069F58091B5228F5F8093B522813039F4DD
S11313104093B6225093B7221092BA2214C020915F
S1131320B6223091B722420F531F569547954093EA
S1131330B6225093B722843031F41092B52281E062
S11313408093BA2239C08FB78A83F8949A81E0E0F7
S1131350F2E08081846080839FBF2EC0623061F59B
S11313608091B4228F5F8093B422813039F440930A
S1131370B8225093B9221092BB2214C02091B822F3
S11313803091B922420F531F569547954093B82286
S11313905093B922843031F41092B42281E08093C6
S11313A0BB220AC08FB78983F8949981E0E0F2E008
S11313B08081886080839FBF0F900F90DF91CF91D1
S11313C00895CF93DF931F92CDB7DEB78FB789838C
S11313D0F89499818091BB22882321F01092BB223A
S11313E09FBF01C09FBF0F90DF91CF910895CF930E
S11313F0DF931F92CDB7DEB78FB78983F8949981B5
S11314008091BA22882321F01092BA229FBF01C092
S11314109FBF0F90DF91CF9108951F93CF93DF93D8
S1131420CDB7DEB72B97CDBFDEBFBE016F5F7F4F59
S113143080E092E00E948824AE01485F5F4F61E043
S113144080E092E00E940C258A819B819F789061C4
S11314509B8396E09D83817E80618A831C82BE018A
S11314606F5F7F4F80E092E00E94222469E779E079
S113147080E092E00E94062211E0188719868A858E
S1131480807F81608A87AE01485F5F4F61E080E0C2
S113149092E00E94C124188788E08987AE01485FE2
S11314A05F4F62E080E092E00E94C12480E092E01D
S11314B00E9466222B96CDBFDEBFDF91CF911F9194
S11314C00895CF93DF93C091B822D091B922BE0181
S11314D080E090E00E94F040C53AD14080F021E8DD
S11314E036E242E45DEB0E947E4123E333E345E5CB
S11314F052E40E945B400E94BF40862F0FC02DE241
S113150031E24FE95DEB0E947E4123E333E342E89D
S113151052E40E945B400E94BF40862FDF91CF912E
S113152008958091B6229091B722089504C0615025
S11315307109810991096115710581059105B9F751
S11315400895BF92CF92DF92EF92FF920F931F9371
S1131550CF93DF931F92CDB7DEB700E016E0689417
S1131560FF24F3F8F801F68269E270E080E090E08D
S1131570DDDFF801F58269E270E080E090E0D6DF1B
S11315800F2EFBE2BF2EF02DB98280EA99E00E9473
S11315902D1AC12CD12C760100E012E12AE730E0AB
S11315A043E0BE016F5F7F4F80EA99E00E94621AB8
S11315B000E616E0FF24F394F801F682B982BE0136
S11315C06F5F7F4F80EA99E00E947D1AF801F682EE
S11315D0E0EAF9E0818185FFFDCF80EA8093A009EC
S11315E0E0EAF9E0818186FFFDCFE0EAF9E080E4FA
S11315F081838081BE016F5F7F4F80EA99E00E9402
S1131600931A8BE28983BE016F5F7F4F80EA99E072
S11316100E947D1A81E080936606E0EAF9E0818108
S113162085FFFDCF86EA8093A009E0EAF9E0818195
S113163086FFFDCFE0EAF9E080E481838081BE018A
S11316406F5F7F4F80EA99E00E94931A8BE289834F
S1131650BE016F5F7F4F80EA99E00E947D1A81E0AE
S113166080936606E0EAF9E0818185FFFDCF88EC8E
S11316708093A009E0EAF9E0818186FFFDCFE0EAEA
S1131680F9E080E481838081BE016F5F7F4F80EA4F
S113169099E00E94931A8BE28983BE016F5F7F4FAA
S11316A080EA99E00E947D1A81E080936606E0EA70
S11316B0F9E0818185FFFDCF82EA8093A009E0EA09
S11316C0F9E0818186FFFDCFE0EAF9E080E48183DF
S11316D08081BE016F5F7F4F80EA99E00E94931A78
S11316E08BE28983BE016F5F7F4F80EA99E00E949D
S11316F07D1A81E080936606E0EAF9E0818185FF46
S1131700FDCF8FE28093A009E0EAF9E0818186FFB2
S1131710FDCFE0EAF9E080E481838081BE016F5F60
S11317207F4F80EA99E00E94931A8BE28983BE017D
S11317306F5F7F4F80EA99E00E947D1A81E0809379
S11317406606E0EAF9E0818185FFFDCF88EF8093AA
S1131750A009E0EAF9E0818186FFFDCFE0EAF9E043
S113176080E481838081BE016F5F7F4F80EA99E0CE
S11317700E94931A8BE28983BE016F5F7F4F80EAD8
S113178099E00E947D1A81E080936606E0EAF9E020
S1131790818185FFFDCF1092A009E0EAF9E0818103
S11317A086FFFDCFE0EAF9E080E481838081BE0119
S11317B06F5F7F4F80EA99E00E94931A8BE28983DE
S11317C0BE016F5F7F4F80EA99E00E947D1A81E03D
S11317D080936606E0EAF9E0818185FFFDCF81E22E
S11317E08093A009E0EAF9E0818186FFFDCFE0EA79
S11317F0F9E080E481838081BE016F5F7F4F80EADE
S113180099E00E94931A8BE28983BE016F5F7F4F38
S113181080EA99E00E947D1A81E080936606E0EAFE
S1131820F9E0818185FFFDCF81E88093A009E0EA9A
S1131830F9E0818186FFFDCFE0EAF9E080E481836D
S11318408081BE016F5F7F4F80EA99E00E94931A06
S11318508BE28983BE016F5F7F4F80EA99E00E942B
S11318607D1A81E080936606E0EAF9E0818185FFD4
S1131870FDCF81E28093A009E0EAF9E0818186FF4F
S1131880FDCFE0EAF9E080E481838081BE016F5FEF
S11318907F4F80EA99E00E94931A8BE28983BE010C
S11318A06F5F7F4F80EA99E00E947D1A81E0809308
S11318B06606E0EAF9E0818185FFFDCF8FEA809337
S11318C0A009E0EAF9E0818186FFFDCFE0EAF9E0D2
S11318D080E481838081BE016F5F7F4F80EA99E05D
S11318E00E94931A0F90DF91CF911F910F91FF9057
S11318F0EF90DF90CF90BF900895AC01837099274B
S1131900892B71F59A013695279536952795ABE77E
S1131910B4E10E941F429695879564E6689F900102
S1131920699F300D112442175307E1F49A0132954F
S113193022952F7023273F702327AEE3BAE00E943D
S11319401F4260E971E0869F9001879F300D969F4A
S1131950300D112481E04217530729F080E00895E7
S113196080E0089581E008950F931F93CF93DF9350
S1131970FC0180818C3348F581818C3340F5828170
S1131980883138F504810C3030F513811F3128F586
S1131990C581D681CE01B1DF90E0FC01EE0FFF1FBF
S11319A0E80FF91FEE0FFF1FEE0FFF1FED55FE4D61
S11319B0E00FF11D8081181790F4C25BD74081E0DD
S11319C0C838D10568F080E00BC080E009C080E031
S11319D007C080E005C080E003C080E001C080E073
S11319E0DF91CF911F910F9108954F925F926F9263
S11319F07F928F929F92AF92BF92CF92DF92EF929B
S1131A00FF920F931F93CF93DF9300D000D0CDB7F5
S1131A10DEB74D835E8322EB37E0FA0125833683FC
S1131A20148220E831E541E050E00E94F54149018B
S1131A305A0169837A838B839C8369017A010F2E0F
S1131A40FCE34F2E512C612C712CF02DA30192013B
S1131A500E94F541ED81FE81608369817A818B81E9
S1131A609C8120E13EE040E050E00E94F541122FCD
S1131A70A30192010E94F541ED81FE81218312832D
S1131A80C501B4016C5F7F4F8F4F9F4F27E030E05B
S1131A9040E050E00E94F541ED81FE8167830F2E06
S1131AA0FEE68F2EF02D992493940DE611E00BC0E1
S1131AB0C41AD50AE60AF70AFFEFAF1ABF0AED8186
S1131AC0FE81A582B682ED81FE81A580B680C50126
S1131AD014DF811103C0402F512F02C0482D592D0E
S1131AE060E070E0C416D506E606F70608F7282F6E
S1131AF030E0F901EE0FFF1FE20FF31FEE0FFF1F9F
S1131B00EE0FFF1FED55FE4D408150E060E070E0A8
S1131B10C416D506E606F70618F191E0F901EE0FB2
S1131B20FF1F2E0F3F1F220F331F220F331F2D5570
S1131B303E4D01C0982FC41AD50AE60AF70AF901E6
S1131B40E90FF11D408150E060E070E081E0890F11
S1131B50C416D506E606F70668F7ED81FE81948380
S1131B60ED81FE81C3822696CDBFDEBFDF91CF918A
S1131B701F910F91FF90EF90DF90CF90BF90AF90A7
S1131B809F908F907F906F905F904F9008958F9269
S1131B909F92AF92BF92CF92DF92EF92FF920F93F8
S1131BA01F936B017C01522F4423BCF030E0ACE363
S1131BB0B0E00E941F42C60ED71EE81EF91EA42FD5
S1131BC0440FBB0B20E13EE00E942E426C0D7D1DB4
S1131BD08E1D9F1DA80109DF1DC0A42F440FBB0B40
S1131BE020E13EE00E942E424B015C01252F30E0B3
S1131BF0ACE3B0E00E941F42A5019401261B370B01
S1131C00480B590BCA01B9016C0D7D1D8E1D9F1D1A
S1131C10A801EBDE1F910F91FF90EF90DF90CF9022
S1131C20BF90AF909F908F9008958F929F92AF92A4
S1131C30BF92CF92DF92EF92FF920F931F93CF93B5
S1131C40DF937C0191DE882309F474C0F7011481C9
S1131C50C581D681A381B0E020E831E541E050E0C0
S1131C600E9434424B015C01228130E0A0E1BEE0DD
S1131C700E941F42860E971EA81EB91E8081880EE0
S1131C80911CA11CB11C218130E0ACE3B0E00E94A6
S1131C901F4275016401C60ED71EE81EF91E1123EA
S1131CA001F1CE012ADE90E0FC01EE0FFF1FE80FE8
S1131CB0F91FEE0FFF1FEE0FFF1FED55FE4D1150E4
S1131CC0DF01A10FB11DAC91B0E020E831E541E0A6
S1131CD050E00E943442C60ED71EE81EF91E1111B0
S1131CE0EECFC33BF7E0DF0750F10DE611E00F2E16
S1131CF0FEE6AF2EF02DBB24B3942197CE01FDDD7B
S1131D00811103C0A02FB12F02C0AA2DBB2D20E842
S1131D1031E541E050E00E943442C60ED71EE81E71
S1131D20F91EC23B87E0D80741F76C2D7D2D8E2D1F
S1131D309F2D09C060E070E080E090E004C06C2D4D
S1131D407D2D8E2D9F2DDF91CF911F910F91FF90AF
S1131D50EF90DF90CF90BF90AF909F908F900895B9
S1131D608F929F92AF92BF92CF92DF92EF92FF92A7
S1131D70CF93DF93C62FD42F58DF6B017C01672BE1
S1131D80682B692BE1F1CC23F4F0AC2FCC0FBB0B07
S1131D9020E13EE00E942E424B015C012D2F30E0F9
S1131DA0ACE3B0E00E941F42DC01CB01880D991D19
S1131DB0AA1DBB1DA7019601281B390B4A0B5B0BFF
S1131DC0CA01B9011FC02D2F30E0ACE3B0E00E947E
S1131DD01F424B015C01AC2FCC0FBB0B20E13EE05A
S1131DE00E942E42A5019401261B370B480B590B68
S1131DF0CA01B9016C0D7D1D8E1D9F1D03C060E0DD
S1131E0070E0CB01DF91CF91FF90EF90DF90CF9006
S1131E10BF90AF909F908F9008958F929F92AF92B2
S1131E20BF92DF92EF92FF920F931F93CF93DF93B2
S1131E30EC018B017A01CB01F8DE4B015C01CE0190
S1131E40F4DE681579058A059B0528F49C2F8D2FEF
S1131E50E801092F182F8D819E81F8012581368193
S1131E60821B930BF701858396832C81822F90E04C
S1131E70F8013481831B910952F4245F2C83F70108
S1131E8085819681009719F00197858396838C81CB
S1131E90F8019481891BF7018483DB808D2D90E008
S1131EA0F8012381821B9109E2F48D819E8125DD55
S1131EB090E02C81FC01EE0FFF1FE80FF91FEE0FDD
S1131EC0FF1FEE0FFF1FED55FE4DE20FF11D319781
S1131ED08081D80EDB82F7018481882311F0815040
S1131EE084838B81F8019381891BF70183832A8181
S1131EF0822F90E0F8013281831B910942F4285E1D
S1131F002A83F7018381882311F0815083838A8196
S1131F10F8019281891BF70182832981822F90E045
S1131F20F8013181831B910942F4245C2983F70170
S1131F308281882311F0815082838981F801918103
S1131F40891BF70181832881822F90E0F801308179
S1131F50831B910942F4245C2883F701818188233F
S1131F6011F0815081838881F8019081891BF701E8
S1131F708083DF91CF911F910F91FF90EF90DF90BD
S1131F80BF90AF909F908F900895EF92FF920F9320
S1131F901F93CF93DF93FC0190819F5F9C3311F0DB
S1131FA0908340C0EF01108281818F5F8C33C9F52B
S1131FB082818F5F883199F5F380E48005811681F1
S1131FC0F394C801992799DC90E0FC01EE0FFF1F00
S1131FD0E80FF91FEE0FFF1FEE0FFF1FED55FE4D2B
S1131FE0EE0DF11D8081F81211C081E08E0D8C3050
S1131FF059F4093388E0180730F40F5F1F4F0D833D
S11320001E8380E001C080E08C83F12C8F818F5F80
S1132010873011F08F8301C01F82FB8280E08A83A6
S113202080E08983DF91CF911F910F91FF90EF9012
S113203008950F931F93CF93DF93CDB7DEB7279700
S1132040CDBFDEBF8FEF80937000809371008093CB
S11320507200809373008093740080937500809362
S1132060760064E081E490E00E9457256CE170E022
S113207082E00E94B6258A836DE170E082E00E94CE
S1132080B625898389819A81019621F480E493E2BB
S113209089839A8389819A818B839C83E0E6F0E02B
S11320A082838C8183838FB78E83F8949E81E0E54D
S11320B0F0E08081826080839FBF818181FFFDCFBA
S11320C08FB78F83F8949F8100E510E0D8011696AE
S11320D08C911697897F16968C931697E0E6F0E01C
S11320E080E885838BEB868316968C9116978460A3
S11320F016968C938081816080839FBF61E080E429
S113210090E00E9457258FB78D83F8949D81F80144
S113211080818E7F80839FBF2796CDBFDEBFDF91F6
S1132120CF911F910F910895CF93DF931F92CDB755
S1132130DEB79FB79983F8949981E82FF0E0E059CE
S1132140FF4F60958081682360839FBF0F90DF916C
S1132150CF910895CF93DF931F92CDB7DEB79FB78A
S11321609983F8949981E82FF0E0E059FF4F80813A
S1132170682B60839FBF0F90DF91CF910895CF9319
S1132180DF931F921F92CDB7DEB7863011F060E067
S113219001C068E18091510081FD2AC08FB7898315
S11321A0F8949981E0E5F0E08081826080839FBFAC
S11321B0818181FFFDCF8FB78A83F8949A81A0E54E
S11321C0B0E016968C911697897F16968C93169785
S11321D0E0E6F0E080E885838BEB868316968C91AD
S11321E01697846016968C938081816080839FBF4C
S11321F0636084E490E00E94572560E480E094DF0B
S11322000F900F90DF91CF9108956F927F928F92EC
S11322109F92AF92BF92CF92DF92EF92FF920F9371
S11322201F93CF93DF931F92CDB7DEB78C01E62EB9
S1132230F42ED22E11D28E2D8F70806BE82E8BE26D
S11322408983BE016F5F7F4F80EA99E00E947D1A07
S113225081E080936606E0EAF9E0818185FFFDCFA5
S1132260E092A009E0EAF9E0818186FFFDCFE0EA8F
S1132270F9E080E481838081BE016F5F7F4F80EA53
S113228099E00E94931A8F2D8F7782958F708061C9
S1132290E82E8BE28983BE016F5F7F4F80EA99E06D
S11322A00E947D1A81E080936606E0EAF9E081816C
S11322B085FFFDCFE092A009E0EAF9E0818186FF85
S11322C0FDCFE0EAF9E080E481838081BE016F5FA5
S11322D07F4F80EA99E00E94931A8F2D8F70F82E19
S11322E08BE28983BE016F5F7F4F80EA99E00E9491
S11322F07D1A81E080936606E0EAF9E0818185FF3A
S1132300FDCFF092A009E0EAF9E0818186FFFDCFDC
S1132310E0EAF9E080E481838081BE016F5F7F4F52
S113232080EA99E00E94931A7801DA94AD2CB12CDA
S1132330EFEFAE1ABE0AA00EB11E0F2EFBE26F2EF7
S1132340F02D00EA19E00F2EF0E6CF2EF6E0DF2E96
S1132350F02D992493946894772476F8F70181906A
S11323607F016982BE016F5F7F4FC8010E947D1AA1
S1132370F6019582F801918195FFFCCF8082F801E6
S1132380918196FFFCCF71828081F6019682BE0115
S11323906F5F7F4FC8010E94931AEA14FB04F1F6A1
S11323A00F90DF91CF911F910F91FF90EF90DF90ED
S11323B0CF90BF90AF909F908F907F906F90089533
S11323C0FF920F931F93CF93DF931F92CDB7DEB786
S11323D0082FF62E142F54D10F70006B8BE28983D3
S11323E0BE016F5F7F4F80EA99E00E947D1A81E011
S11323F080936606E0EAF9E0918195FFFDCF0093B2
S1132400A009E0EAF9E0818186FFFDCFE0EAF9E086
S113241080E481838081BE016F5F7F4F80EA99E011
S11324200E94931A0F2D0F7702950F7000618BE2B3
S11324308983BE016F5F7F4F80EA99E00E947D1A15
S113244081E080936606E0EAF9E0818185FFFDCFB3
S11324500093A009E0EAF9E0818186FFFDCFE0EA7C
S1132460F9E080E481838081BE016F5F7F4F80EA61
S113247099E00E94931A0F2D0F708BE28983BE019D
S11324806F5F7F4F80EA99E00E947D1A81E080931C
S11324906606E0EAF9E0818185FFFDCF0093A0099B
S11324A0E0EAF9E0818186FFFDCFE0EAF9E080E42B
S11324B081838081BE016F5F7F4F80EA99E00E9433
S11324C0931A8BE28983BE016F5F7F4F80EA99E0A4
S11324D00E947D1A81E080936506E0EAF9E081813B
S11324E085FFFDCF1093A009E0EAF9E0818186FF22
S11324F0FDCFE0EAF9E080E48183808181E080938C
S11325006606BE016F5F7F4F80EA99E00E94931ACE
S11325100F90DF91CF911F910F91FF9008950F932A
S11325201F93CF93DF931F92CDB7DEB78CEB92E26C
S11325308ED007D88BE28983BE016F5F7F4F80EA1C
S113254099E0DBD781E080936606E0EAF9E08181D7
S113255085FFFDCF80E48093A009E0EAF9E0818162
S113256086FFFDCFE0EAF9E080E481838081BE014B
S11325706F5F7F4F80EA99E0D6D700E00AC040E061
S1132580612F802F1DDF1F5F1038C9F70F5F0430E4
S113259011F010E0F4CF0F90DF91CF911F910F91C4
S11325A00895FF920F931F93CF93DF9388234CF1E9
S11325B0603238F5D42FC82FF62EF694F694F6949C
S11325C070E088E0F89E60197109112481E090E0C0
S11325D08C0102C0000F111F6A95E2F76C2F8F2D3A
S11325E05DD0D13021F028F0D23031F006C0802BFC
S11325F004C00095802301C08027482F6C2F8F2DA5
S1132600DFDEDF91CF911F910F91FF90089546C0B7
S113261008950F931F93CF93DF93D82F162F042F72
S1132620C22F3CD0C13021F028F0C23031F006C0B6
S1132630802B04C00095802301C08027482F612F80
S11326408D2FBEDEDF91CF911F910F91089580935E
S1132650BC249093BD240895DC01E42FF0E0AF0185
S113266080E8689F400D511D1124E091BC24F09135
S1132670BD24E40FF51F8D9181932150E1F7089556
S11326802091BC243091BD2490E8899F200D311DF8
S11326901124F901E60FF11D408308952091BC2413
S11326A03091BD2490E8899F200D311D1124F9013A
S11326B0E60FF11D80810895FF920F931F93CF932E
S11326C0DF93E42FF0E0E80FF11DE138F1051CF091
S11326D0C0E84C2F481B442309F44AC0D62FD69592
S11326E0D695D69570E098E0D99F601971091124A8
S11326F0E1E0F0E0DF0102C0AA0FBB1F6A95E2F738
S1132700FA2E213021F098F0223019F131C0C42F73
S11327101FEF180F012F0C0F602F8D2F78DF4F2D17
S1132720482B602F8D2F4CDEC150A1F721C0C42F40
S11327301FEF180FFA2EF094012F0C0F602F8D2F1E
S113274066DF4F2D4823602F8D2F3ADEC150A1F74D
S11327500FC0C42F1FEF180F012F0C0F602F8D2FE8
S113276056DF4F2D4827602F8D2F2ADEC150A1F749
S1132770DF91CF911F910F91FF900895EF92FF92F7
S11327800F931F93CF93DF93442309F446C0122F72
S1132790D82F9FEF960F940F691303C0422F01DFC8
S11327A03CC09F3108F09FE1C62FC695C695C695DB
S11327B0092F06950695069567702FEF30E0A9015D
S11327C002C0440F551F6A95E2F7977067E070E006
S11327D0FB01E91BF109790102C0F594E794EA953C
S11327E0E2F7C01306C04E21212F6D2F8C2F11DF6D
S11327F014C0212F6D2F8C2F0CDFCF5FC01740F436
S1132800212F4FEF6D2F8C2F04DFCF5FC017C0F344
S1132810212F4E2D6D2F802FFCDEDF91CF911F9144
S11328200F91FF90EF900895FF920F931F93CF9312
S1132830DF93D82F162FC42FF22E202F3DDF6FEFFA
S11328406F0D610F202F4C2F8D2F36DF202F4F2D32
S1132850612F8D2F93DF8FEF8C0F202F4F2D612F42
S11328608D0F8CDFDF91CF911F910F91FF90089511
S1132870FF920F931F93CF93DF93222369F0F42EDB
S1132880182FC22FDFEFD60F6D2F6C0F202F4F2D77
S1132890812F12DFC150C1F7DF91CF911F910F91AA
S11328A0FF9008955F926F927F928F929F92AF9262
S11328B0BF92CF92DF92EF92FF920F931F93CF9329
S11328C0DF93982EA62EC42FB22E411103C0422F9F
S11328D068DE76C0842F90E0880F991F23E030E0F3
S11328E07901E81AF90AC62ED92C192DD1E0802FC6
S11328F08370682E802F8C70782E802F8073882EA2
S1132900007C01C0D82F55245A945D0E662069F0CE
S11329102B2D4D2F6C2D892D8C0F30DF2B2D41E06D
S11329204C0F6A2D6C1B812F29DF772069F02B2D2A
S11329304D2F6C2D892D8C1B21DF2B2D41E04C0F4D
S11329406A2D6C1B8D2D1ADF882061F02B2D4D2FE5
S11329506A2D892D8C1B12DF2B2D41E04C0F6A2D23
S11329608D2D0CDF002361F02B2D4D2F6A2D892D29
S11329708C0F04DF2B2D41E04C0F6A2D812FFEDEDE
S1132980FF2054F4852D90E0880F991F880F991F1C
S11329900696E80EF91E0CC0852D90E08C1B91095B
S11329A0880F991F880F991F0A96E80EF91EC150C7
S11329B081E08D0F1F5FDA94CA94CD1708F0A2CF7F
S11329C0DF91CF911F910F91FF90EF90DF90CF9007
S11329D0BF90AF909F908F907F906F905F9008957D
S11329E0CF92DF92EF92FF920F931F93CF93DF93D7
S11329F07C01D62EDC011196CC901197C694C69416
S1132A00C69446954695469512968C91882331F046
S1132A10813009F045C0C11023C042C0C11028C094
S1132A203FC0C0E0809FF001819FF00D1124EC0FA6
S1132A30F11DD70113964D915C911497E40FF51F86
S1132A4044916D2D6C0F8D2FBBDCCF5FF70180811E
S1132A50C81740F30F5F1F4FDF5F0C1520F020C035
S1132A60D42F00E010E0D7018C918111DACFF2CF9E
S1132A70C40ED42F00E010E0F7012081209FC00194
S1132A80219F900D11240380F481E02D4D2D6D2F95
S1132A908E0F9F1FBADB0F5F1F4FDF5FCD12ECCF8E
S1132AA0DF91CF911F910F91FF90EF90DF90CF9026
S1132AB00895EF92FF920F931F93CF93DF937C01BE
S1132AC0DC0115968C9115970BEA809F012D11243A
S1132AD0D02FD69516968C91D81302C0662349F050
S1132AE000E028E140E868E080E0C2DE81E0809315
S1132AF0BE24F701D68300E028E144E068E080E0EA
S1132B00B7DED70115964C918BEA489F812D11248D
S1132B108695982F990F890F481B440F440F440F33
S1132B20485F60E081E090E25BDF8091BE2488230F
S1132B30A9F1CD2FCC0FCD0F0D2F10E00F5F1F4F3C
S1132B40C801880F991F080F191F8C2F90E0801758
S1132B50910714F5F7018481C817F0F4D8E0EC2F3D
S1132B60F0E0EE0FFF1FD70112968D919C91139701
S1132B70E80FF91F20E130E24D2F65E0808191815B
S1132B80F8D3CF5F8C2F90E0801791072CF4D85F97
S1132B90F7018481C81718F31092BE24DF91CF91F6
S1132BA01F910F91FF90EF9008950F93CF93DF93B0
S1132BB0EC0100E020E240E860E080E059DE20E142
S1132BC030E240E060E088819981D3D361E0CE01B6
S1132BD070DFDF91CF910F9108956D3059F118F4A2
S1132BE0683059F105C0FC016632B1F0683211F069
S1132BF08FEF08952581422F50E0848190E0019762
S1132C004817590711F4158202C02F5F258360E02D
S1132C10CF014FDF8FEF08958581882319F081500C
S1132C20858303C084818150858360E0CF0141DFC7
S1132C308FEF0895FC01858108958EEF08950F9319
S1132C40662339F0FC01448560E086E090E2C8DE4A
S1132C5007C000E028E044E0FC01648580E008DE71
S1132C600F910895DF92EF92FF920F931F93CF93EA
S1132C70DF93CDB7DEB76897CDBFDEBF182FD62E52
S1132C8000E027E040E868E180E0F2DD8FE49BE4C7
S1132C908B839C831D829E012E5F3F4FAE014F5F4D
S1132CA05F4F60E170E2CE01039691D3298180E801
S1132CB090E0821B9109BC0112F46F5F7F4F7B018E
S1132CC0F594E7941123C1F020E130E248E16E2D40
S1132CD0CE01039625D3DD2039F06CEF6E0D48E16B
S1132CE086E090E27DDE0FC000E028E044E068E189
S1132CF08CEF8E0DBDDD07C000E027E044E168E104
S1132D008CEF8E0DB5DD6896CDBFDEBFDF91CF9120
S1132D101F910F91FF90EF90DF900895CF92DF9273
S1132D20EF92FF920F931F93CF93DF93CDB7DEB74C
S1132D302997CDBFDEBF7C01662381F000E027E048
S1132D4040E8DC011C966C9180E092DD20E130E2E9
S1132D50F701448565E0808191810BD3D7011D96ED
S1132D608C911D97882339F01C964C916CE78BE06D
S1132D7090E236DE07C000E028E044E0F701648515
S1132D808CE776DDD70112968C911297813039F554
S1132D9014968C9114978F9313968C918F9388EC3F
S1132DA091E29F938F931F9289E08F93FE01319656
S1132DB06F01FF93EF930E94784200E027E042E323
S1132DC0D7011C966C918AE453DD20E130E2F701CF
S1132DD044856AE4C601A4D2CDBFDEBF20C0811100
S1132DE01EC0D70115961C91159700E027E042E319
S1132DF01C966C918AE43CDDE12FF0E0EE0FFF1F9E
S1132E00D70113968D919C911497E80FF91F20E137
S1132E1030E21C964C916AE480819181AAD2299671
S1132E20CDBFDEBFDF91CF911F910F91FF90EF9047
S1132E30DF90CF900895CF92EF92FF920F931F935C
S1132E40FC0140835183628300871187E286F38605
S1132E50C486158606831783611104C023833483D3
S1132E60058302C0038314831F910F91FF90EF9099
S1132E70CF900895FC0110861582148281E0818729
S1132E800895CF93DF93EC01DB0114969C91149782
S1132E90933038F5990F990F990F9C8714962C91BC
S1132EA01497211104C0CD93DC93119710C0ED91B8
S1132EB0FC911197223038F091E00684F785E02DDB
S1132EC09F5F2913FACFC687D787E88BF98B1296B1
S1132ED0CD93DC93139714968C9114978F5F14966B
S1132EE08C93DF91CF910895EF92FF920F931F93EC
S1132EF0CF937C0100E020E240E860E080E0B8DCB1
S1132F00F70184818823B1F000811181C0E061E080
S1132F10C80104DFF80106851785CF5FF7018481B6
S1132F20C817A8F360E081E09DDE61E0F7018081CD
S1132F30918185DECF911F910F91FF90EF900895BD
S1132F40CF93DF93EC016D3009F462C020F4683054
S1132F5009F480C092C0663279F1683209F08DC0FC
S1132F608D85882309F48CC08A81813081F48B811A
S1132F709C81288539852817390724F401978B8388
S1132F809C8314C08A859B858B839C830FC081118D
S1132F900DC08D81482F50E02885398524173507C9
S1132FA01CF481508D8302C08A858D8360E0CE013C
S1132FB0B5DE8FEF90E06CC08D85882309F463C083
S1132FC08A81813081F48B819C812A853B8582179B
S1132FD0930724F401968B839C8314C08885998578
S1132FE08B839C830FC081110DC08D81482F50E0CD
S1132FF02A853B85421753071CF48F5F8D8302C0DB
S113300088858D8360E0CE0189DE8FEF90E040C03B
S11330108D858823B9F08A81813049F41D8660E06A
S1133020CE017CDE8B819C818E839F8331C0811194
S11330302DC01D8660E0CE0171DE8D8190E08E830F
S11330409F8326C081E08D8760E0CE0167DE8FEF2D
S113305090E01EC01D868A81813029F48E819F8173
S11330608B839C8304C0811102C08E818D8360E0B8
S1133070CE0154DE8EEF90E00BC08FEF90E008C0DD
S11330808FEF90E005C08FEF90E002C01D86EFCF78
S1133090DF91CF910895EF92FF920F931F93CF93F7
S11330A0DF93EC018C81882309F4CBC089858823C4
S11330B051F1A881B98190E012968C9112978130D8
S11330C069F413962D913C911497E92FF0E0EE0FDB
S11330D0FF1FE40FF51F208331830CC0E92FF0E0BC
S11330E0EE0FFF1FE40FF51F15962C91159730E096
S11330F0208331831E960D90BC91A02D9F5F8C81FF
S11331009817D0F21986088119818D819FEF980F45
S11331109E3F38F490E0F801068517859F5F891378
S1133120FACF7A0198859923E1F0C80109DF8E83EB
S11331309F838E3F910521F418868FEF90E08CC019
S11331408F3F910509F480C04D8150E0440F551F15
S1133150F701E40FF51F8083918318868FEF90E0C9
S11331607BC06D3009F463C020F4683009F46FC08B
S113317004C0663291F1683219F08FEF90E06CC0B0
S11331808F3F51F41D8260E081E06CDD61E0C80195
S113319056DD8FEF90E060C090E02C8130E021504C
S11331A031098217930774F460E0C80148DD8D810A
S11331B08F5F8D8361E0F8018685978540DD8FEF11
S11331C090E04AC060E0C8013ADD8FEF8D8361E092
S11331D081E048DD8FEF90E03FC08F3F69F460E00D
S11331E081E040DD8C8181508D8361E08A819B8107
S11331F026DD8FEF90E030C0882371F060E0C801D5
S11332001EDD8D8181508D8361E0F8018089918973
S113321016DD8FEF90E020C060E0C80110DD8FEF75
S11332208D8361E081E01EDD8FEF90E015C08F3F5C
S113323089F06DE0C80184DE81E088878FEF90E03B
S11332400BC08EEF90E008C08FEF90E005C08EEFCA
S113325090E002C08DEF90E0DF91CF911F910F912C
S1133260FF90EF900895AF92BF92CF92DF92EF92CA
S1133270FF920F931F93CF93DF93C82FE62EB42EA4
S1133280690100E0F901248143816B2D8E2DF0DA70
S1133290F6018081811139C08381282F26952695D6
S11332A02695877009F02F5FF601A4808C2F90E09B
S11332B03581831B91092A9D90011124829FA001CD
S11332C0839F500D929F500D112401811281040F90
S11332D0151FF601F380FF20A1F0D0E0C0E08E2D91
S11332E08C0F9C2F977021F4F801D4910F5F1F4F1E
S11332F0DD231CF441E06B2D54D9DD0FCF5FFC12AC
S1133300EECFB394AA94A110E4CFDF91CF911F9193
S11333100F91FF90EF90DF90CF90BF90AF90089502
S1133320DF92EF92FF920F931F93CF93DF93D62EEA
S1133330042F7901EC01162F89918A3031F4F701B9
S113334084818F5F080F1D2D09C08D3039F09701DE
S1133350402F612F88DFF7018381180F8881811145
S1133360EBCFDF91CF911F910F91FF90EF90DF9002
S11333700895DF92EF92FF920F931F93CF93DF9301
S1133380EC01D62E042F7901FC0184918823B9F035
S1133390162F8A3031F4F70184818F5F080F1D2DB9
S11333A009C08D3039F09701402F612F5CDFF701A0
S11333B08381180F2196FE0184918111EACFDF9158
S11333C0CF911F910F91FF90EF90DF900895CF93CD
S11333D0DF93FB01EA01D90173816481FC01562F5B
S11333E090E031E081918A3019F4560F90E006C0E4
S11333F08D3021F0970F391708F4392F808181110E
S1133400F1CF38835C93DF91CF910895CF93DF930D
S1133410FC0120E030E0C62FD0E0DE01022E02C025
S1133420B595A7950A94E2F7A0FD508B2F5F3F4F07
S113343031962830310589F740FF0AC041FF03C0A7
S1133440FC01658302C0FC016683FC01618302C048
S1133450FC016283DF91CF910895803A28E09207BE
S113346029F460E183E00C9494100895803B28E0F3
S1133470920729F460E283E00C9494100895803A52
S113348029E0920729F460E184E00C9494100895F3
S1133490803B29E0920729F460E284E00C949410C4
S11334A00895803A2AE0920729F460E185E00C94BB
S11334B094100895803A9B4021F460E186E00C94D6
S11334C0941008950F931F93CF93DF9300D000D0EF
S11334D0CDB7DEB709831A832B833C834D831E82C9
S11334E0BE016F5F7F4F0E94C92D2696CDBFDEBF00
S11334F0DF91CF911F910F910895FB018081E82FF7
S1133500E695E695E69540E2E49FF0011124FA5F22
S1133510877021E030E0A90102C0440F551F8A954D
S1133520E2F746830895FB018081E82FE695E6954E
S1133530E69540E2E49FF0011124FA5F877021E0F0
S113354030E0A90102C0440F551F8A95E2F7458374
S113355008951092D4291092E0291092E129E6ED01
S1133560F9E281EA808380E28183128213821482E9
S1133570158282E090E08683978310861186E2EEBE
S1133580F9E280E092ECA1E0B0E080839183A28331
S1133590B3831482158288E086838091D4298F5F57
S11335A08093D42981E008958091D4298150809317
S11335B0D42908958091D32981508093D32980916F
S11335C0D3291092D229089580E0089580E00895C7
S11335D00895FF920F931F93CF93DF931F92CDB75C
S11335E0DEB78091C22481119FC00E94A333882337
S11335F051F00091C3241091C4240E94B0330817E1
S1133600190759F491C00091C3241091C4240E9455
S1133610AB330817190709F487C08FB78983F89467
S113362019810091C524E02FF0E0EE0FFF1FEA534B
S1133630FB4D80819181892B09F58091BF24909164
S1133640C02401968093BF249093C0240E94A33386
S1133650811107C08091BF249091C02484369105C4
S113366058F00E94A333882349F08091BF2490919D
S1133670C0248032934010F41FBF56C01092BF2460
S11336801092C0248091C124811106C081E00111EF
S113369080E08093C52404C081E0011180E0082FFC
S11336A081E08093C2241FBF10E0F801EE0FFF1FDA
S11336B0EA53FB4D80819181FF24F394803421E00F
S11336C0920709F4F12C8034914091F00E94A333C5
S11336D0882339F00E94B0338093C3249093C42488
S11336E00BC00E94AB338093C3249093C42404C0C2
S11336F01092C3241092C424F801EE0FFF1FEA5362
S1133700FB4D2081318180E491E0089FA001099F55
S1133710500D189F500D112446535B4D0BE91BE1CE
S11337206F2D81E80E9494340F90DF91CF911F9107
S11337300F91FF900895811115C02091C52481E057
S113374090E0222311F080E090E0880F991FFC01A3
S1133750EA53FB4D108211821092C1241092C224AC
S113376080E037CF089580E034CF08958091812B95
S11337708823CCF480768032E9F58091822B8132E3
S1133780D9F58091872B9091882B0797B9F5E1E8BB
S1133790FBE282EE99E28087918787E090E082875E
S11337A0938781E008958076803251F58091822B51
S11337B0803219F08232B9F025C08091872B909124
S11337C0882B079709F5E1E8FBE288EE9AE1848704
S11337D0958782EE99E28087918787E090E08287DF
S11337E0938781E008958091832B81700E94E23752
S11337F081E0089580E0089580E0089580E00895D0
S113380080E0089580E0089580E00895CF93DF93E9
S11338101F92CDB7DEB78FB78983F8944981209181
S11338204B2730914C27E0914D27F0E0EE0FFF1F1E
S1133830E25BF84D808191814FBF821B930B0F9007
S1133840DF91CF910895E2DF21E0892B09F420E094
S1133850822F08950F931F93CF93DF931F92CDB7B9
S1133860DEB78FB78983F894998120914D27809191
S11338704A27811110C060914B2770914C27022F69
S113388010E0F801EE0FFF1FE25BF84D408151811B
S11338906417750718F49FBF80E022C010924B276D
S11338A010924C2781E0211180E080934D2781E024
S11338B080934A279FBF80E0C6DF80E491E0089FA1
S11338C0A001099F500D189F500D11244E5A584DB8
S11338D008EA1CE120E431E061E082E00E949434D3
S11338E00F90DF91CF911F910F9108951092D329DA
S11338F01092C2241092C1241092C524E6ECF4E282
S113390010821182128213821092C3241092C42452
S113391080E05FDE10924A2710924D27EEE4F7E232
S1133920108211821282138210924B2710924C271C
S113393080E090DF882359F09091D3299F5F909382
S1133940D3299091D329913011F49093D2290895D9
S11339500F931F93811126C080914D27E1E08111BF
S1133960E0E0842F6115710591F4F0E020E431E08A
S1133970E29FA001E39F500DF29F500D11244E5A77
S1133980584D08EA1CE161E00E9494340BC0F0E059
S1133990EE0FFF1FE25BF84D6083718310924A279C
S11339A080E058DF1F910F91089580E04CCF089577
S11339B0CF92DF92FF920F931F93CF93DF931F92C7
S11339C0CDB7DEB7FF24F3948091E829893009F05C
S11339D0F12CA0E0B0E000E411E08FB78983F89403
S11339E0698120914B2730914C2780914D2790E09D
S11339F0FC01EE0FFF1FE25BF84D408151816FBF68
S1133A002417350730F08091D2298111E6CF90E058
S1133A101EC0809FF001819FF00D909FF00D112436
S1133A20EE5AF84DE20FF31F80816D01C82A2F5F13
S1133A303F4F20934B2730934C2780E00BDFFF2030
S1133A4021F0BC2DAA27F12CC8CF8C2D9D2D0F90D1
S1133A50DF91CF911F910F91FF90DF90CF90089548
S1133A6080E0A6CF0895CF93DF931F92CDB7DEB742
S1133A708FB78983F89499818091C524E82FF0E069
S1133A80EE0FFF1FEA53FB4D20813181203441E0CA
S1133A90340789F44091C22441110DC04091C124DE
S1133AA0411109C021E02093C124811120E0209319
S1133AB0C52420E030E09FBF80E491E0821B930B9B
S1133AC00F90DF91CF910895CEDF21E0892B09F487
S1133AD020E0822F0895DF92EF92FF920F931F93BD
S1133AE0CF93DF931F92CDB7DEB7D62EF72EEE24F9
S1133AF0E3948091E829893009F0E12C00E411E095
S1133B0080E0E2DF811107C08091D2298111F8CFD2
S1133B1080E090E02BC08FB78983F894698120916D
S1133B20C52430E0F901EE0FFF1FEA53FB4D8081FD
S1133B309181AC014F5F5F4F40835183209FA0016F
S1133B40219F500D309F500D11249A0126533B4D57
S1133B50F901E80FF91FD0826FBFEE2029F0DF2CA6
S1133B60FF0CFF08E12CCCCF81E090E00F90DF91B7
S1133B70CF911F910F91FF90EF90DF900895BC01BA
S1133B8080E0A9CF0895E091EE29F091EF2901900A
S1133B90F081E02D228133812E0F3F1FFC014081F3
S1133BA0E40FF11DE217F307A0F481818430A1F042
S1133BB0861306C014C081818430A1F08617A9F051
S1133BC08081E80FF11DE217F307A8F380E090E08D
S1133BD0089580E090E0089580E090E008958E2FAD
S1133BE09F2F089580E090E008958E2F9F2F0895D1
S1133BF08091832B8F770C94A53308959091F029AD
S1133C00992381F1E091EE29F091EF290190F0815F
S1133C10E02D9481891740F5E093EC29F093ED2988
S1133C20228133812E0F3F1FE217F307F8F49181AD
S1133C30943061F49281891309C09381961306C06C
S1133C40E093EC29F093ED2981E008959081E90F48
S1133C50F11DE217F30758F3E093EC29F093ED29F3
S1133C6080E0089580E0089580E0089580E008955C
S1133C70EF92FF921F93CF93DF93C82F60E0BEDFD4
S1133C80182F882381F1A091EE29B091EF29EC2F10
S1133C90F0E0EE0FFF1F12968D919C911397E80FA1
S1133CA0F91FE080F180D7011696ED91FC911797EA
S1133CB01995682F8C2FA2DF182F8823A1F0C091AB
S1133CC0EC29D091ED2965E0CE015DDFEC01892B73
S1133CD021F08A810E94AE35F6CFD7011296ED917C
S1133CE0FC9113971995812FDF91CF911F91FF902C
S1133CF0EF9008951F93CF93DF93182F7FDF8823CE
S1133D0041F1C091EC29D091ED2965E0CE013BDF72
S1133D10EC01892B49F04C815D816B818A810E9481
S1133D20BA338111F2CF15C0A091EE29B091EF29D9
S1133D30E12FF0E0EE0FFF1F12968D919C911397E7
S1133D40E80FF91F0190F081E02D0190F081E02D42
S1133D501995DF91CF911F9108950C941E33089506
S1133D60CF938091F0298823C1F0E091EE29F0915E
S1133D70EF290190F081E02D8481882371F0C0E067
S1133D808C2F76DFCF5FE091EE29F091EF2901903F
S1133D90F081E02D8481C81798F31092F02981E016
S1133DA090E08093F4299093F529CF910895CF93CF
S1133DB08091F029882349F1A091EE29B091EF294F
S1133DC0ED91FC91119784818823F9F0C0E0EC2FE8
S1133DD0F0E0EE0FFF1F12968D919C911397E80F60
S1133DE0F91F0190F081E02D0084F185E02D3097DA
S1133DF009F01995CF5FA091EE29B091EF29ED91CB
S1133E00FC9111978481C81710F3CF9108950F93F3
S1133E101F93CF93DF93E1E8FBE2128613861486A7
S1133E20158616861786808188230CF079C2209126
S1133E30872B3091882B2115310509F06CC263C2A0
S1133E408F7109F0ABC09091822B963081F098303D
S1133E5009F499C09111A2C02230310509F00FC2B2
S1133E6062E070E084EF99E20E94B33362C2809111
S1133E70832B9091842B292F332722303105B1F0E5
S1133E8020F42130310541F0BCC123303105F1F17A
S1133E902F30310561F1B5C180912B2090912C20F8
S1133EA0DC016C9170E00E94B3335EC0E0912B2082
S1133EB0F0912C202189821708F0E1C19927880FFD
S1133EC0991F880F991FE0912D20F0912E20E80F63
S1133ED0F91F80819181FC01628173810E94B33357
S1133EE0E091892BF0918A2B82E081833DC08091FF
S1133EF02F2090913020009709F4C1C1DC01129663
S1133F006D917C9113970E94B3332EC09927813011
S1133F10910599F058F08230910509F406C203978F
S1133F2009F078C13CE0E1E9FBE20AC064E070E03A
S1133F308AEC90E20E94B33317C0E0ECF0E239E07F
S1133F40A2E9B0E220E0819190E08D939D932F5FF0
S1133F502317C8F3632F660F6E5F6093902070E0A1
S1133F6080E990E20E94B333E1E8FBE28681978125
S1133F70228533858217930708F0DBC180938B2B4E
S1133F8090938C2BD6C12130310509F078C161E0C2
S1133F9070E080EF99E20E94B333CBC18130E9F540
S1133FA09091822B9A30C9F52130310509F037C13F
S1133FB08091F029882309F432C1C091852BD091D6
S1133FC0862B0091EE291091EF29D801ED91FC91F7
S1133FD08481C81708F023C160E08C2F0FDE88238A
S1133FE009F418C1CE019927880F991FD801129698
S1133FF0ED91FC911397E80FF91F0190F081E02DEA
S113400086819781FC0119958093F22961E070E023
S113401082EF99E20E94B3338CC1823009F0FAC076
S11340208091822B8111EFC02230310509F027C124
S11340308091852B0E94423490E08093EA299093EA
S1134040EB2962E070E08AEE99E20E94B33371C119
S11340508F7109F084C09091822B933009F4D5C0FC
S113406018F49130A1F07BC0953019F0993039F1F2
S113407076C08091872B9091882B892B09F0FFC003
S113408088EF9DE180938D2B90938E2B52C180916C
S1134090872B9091882B892B09F0F1C08091832B79
S11340A09091842B019709F0EAC08091F4299091B2
S11340B0F5298D7F8093F4299093F5293AC1809155
S11340C0872B9091882B892B09F0D9C00E94A833A3
S11340D0882309F49FC02091832B3091842B3327AC
S11340E0E0912B20F0912C20818990E08217930796
S11340F008F490C035DE8091832B9091842B8093BB
S1134100F029882309F415C199278150904C880F10
S1134110991F880F991FE0912D20F0912E20E80F10
S1134120F91FE093EE29F093EF290190F081E02D3F
S11341308481882309F4FDC0C0E060E08C2FDADDBF
S1134140882309F467C0CF5FE091EE29F091EF294D
S11341500190F081E02D8481C81778F3EAC08130A2
S1134160E9F49091822B9B30C9F48091872B909134
S1134170882B892B09F053C08091F029882309F4F6
S11341804EC0E1E8FBE2C481D2818C2F71DD88232B
S113419009F440C06D2F8C2FADDD3AC08230D1F5CB
S11341A08091822B813019F08330A1F030C080914E
S11341B0872B9091882B892B09F061C08091832BE8
S11341C09091842B892B09F05AC08091852B0E94F1
S11341D05D341EC08091872B9091882B892B09F028
S11341E04EC08091832B9091842B892B09F047C07A
S11341F0C1E8DBE28C810E945F358C810E94CA3564
S113420007C080E005C080E003C080E001C080E01A
S1134210811190C08091812B8F71813081F58091C3
S1134220F029882309F471C00091852B1091862B05
S1134230C091EE29D091EF29E881F9818481081792
S113424008F065C060E0802FD9DC8823C1F0F80154
S1134250FF27CF01880F991FEA81FB81E80FF91F1F
S1134260C081D181EE81FF811995682F802FC6DC32
S1134270882329F0EC81FD81199581115BC080911F
S1134280812B8F71823009F044C08091F0298823FA
S1134290B1F1A091EE29B091EF29ED91FC91119724
S11342A08481882371F1C0E0EC2FF0E0EE0FFF1F52
S11342B012968D919C911397E80FF91F008111813B
S11342C0D8011696ED91FC9117971995682F8C2FAC
S11342D095DC882379F1D8011496ED91FC9115971A
S11342E01995811127C0CF5FA091EE29B091EF29D4
S11342F0ED91FC9111979481C917B0F21BC080E035
S113430019C080E017C080E015C080E013C080E0D1
S113431011C080E00FC0982F907609F07BCF90CD2C
S1134320982F907609F076CF93CE3FE0E0EBF0E261
S113433007CE81E0DF91CF911F910F91089543E063
S113434050E061E080EE97E061D843E050E062E045
S113435080EE97E05BD843E050E060E180E696E0D1
S113436055D841E050E460E280E696E04FD840E062
S11343705BE160E280E896E049D840E05BE162E01E
S113438080EA96E043D840E05BE164E080EA96E0AE
S11343903DD843E050E062E080E696E037D843E061
S11343A050E068E080E696E031D843E050E068E011
S11343B080EA96E02BD843E050E061E080E696E0A6
S11343C025D843E050E068E080E096E01FD841E063
S11343D050E060E180E896E019D843E050E062E004
S11343E080E696E013D843E050E068E080E696E08B
S11343F00DD840E050E064E080E696E007D843E062
S113440050E060E180EA96E001C80895CF93DF931D
S11344101F92CDB7DEB72FB72983F8944981282F8F
S1134420392F211582E0380729F460937D2B70938E
S11344307E2B07C02034324021F460937B2B709391
S11344407C2B4FBF0F90DF91CF910895811522E00F
S1134450920769F48091F72991E0980F9093F729D6
S1134460811114C062E081E00C94941008958034AA
S1134470924061F48091F62991E0980F9093F62987
S1134480811104C062E082E00C94941008958115B7
S113449022E0920761F48091F72981508093F729F3
S11344A0811113C062E081E00C94AA100895803455
S11344B0924059F48091F62981508093F629811114
S11344C004C062E082E00C94AA100895EF92FF9277
S11344D01F93CF93DF931F921F92CDB7DEB77C015A
S11344E08FB78983F8941981C701B0DFF701808100
S11344F0816080831FBF8091762B8F3F09F4FFCFAB
S11345008FB78A83F8949A81E5E7FBE281818F5F14
S113451081839FBF0F900F90DF91CF911F91FF90E8
S1134520EF9008951F920F920FB60F9211240BB6BD
S11345300F922F933F934F935F936F937F938F9338
S11345409F93AF93BF93EF93FF93409124025091B5
S11345502502E0917D2BF0917E2B61E080E092E0DA
S11345601995FF91EF91BF91AF919F918F917F9199
S11345706F915F914F913F912F910F900BBE0F90D0
S11345800FBE0F901F9018951F920F920FB60F92A7
S113459011240BB60F922F933F934F935F936F9316
S11345A07F938F939F93AF93BF93EF93FF93409128
S11345B02C0250912D02E0917D2BF0917E2B62E034
S11345C080E092E01995FF91EF91BF91AF919F9197
S11345D08F917F916F915F914F913F912F910F90A8
S11345E00BBE0F900FBE0F901F9018951F920F9245
S11345F00FB60F9211240BB60F922F933F934F9344
S11346005F936F937F938F939F93AF93BF93EF9336
S1134610FF934091340250913502E0917D2BF0914B
S11346207E2B64E080E092E01995FF91EF91BF91B9
S1134630AF919F918F917F916F915F914F913F9136
S11346402F910F900BBE0F900FBE0F901F901895D7
S11346501F920F920FB60F9211240BB60F922F9345
S11346603F934F935F936F937F938F939F93AF93F6
S1134670BF93EF93FF9340913C0250913D02E09130
S11346807D2BF0917E2B68E080E092E01995FF91FC
S1134690EF91BF91AF919F918F917F916F915F91B6
S11346A04F913F912F910F900BBE0F900FBE0F9023
S11346B01F9018951F920F920FB60F9211240BB6EC
S11346C00F922F933F934F935F936F937F938F93A7
S11346D09F93AF93BF93EF93FF93409164025091E4
S11346E06502E0917B2BF0917C2B61E080E492E009
S11346F01995FF91EF91BF91AF919F918F917F9108
S11347006F915F914F913F912F910F900BBE0F903E
S11347100FBE0F901F9018951F920F920FB60F9215
S113472011240BB60F922F933F934F935F936F9384
S11347307F938F939F93AF93BF93EF93FF93409196
S11347406C0250916D02E0917B2BF0917C2B62E026
S113475080E492E01995FF91EF91BF91AF919F9101
S11347608F917F916F915F914F913F912F910F9016
S11347700BBE0F900FBE0F901F9018951F920F92B3
S11347800FB60F9211240BB60F922F933F934F93B2
S11347905F936F937F938F939F93AF93BF93EF93A5
S11347A0FF934091740250917502E0917B2BF0913C
S11347B07C2B64E080E492E01995FF91EF91BF9126
S11347C0AF919F918F917F916F915F914F913F91A5
S11347D02F910F900BBE0F900FBE0F901F90189546
S11347E01F920F920FB60F9211240BB60F922F93B4
S11347F03F934F935F936F937F938F939F93AF9365
S1134800BF93EF93FF9340917C0250917D02E0911E
S11348107B2BF0917C2B68E080E492E01995FF916A
S1134820EF91BF91AF919F918F917F916F915F9124
S11348304F913F912F910F900BBE0F900FBE0F9091
S11348401F901895BF92CF92DF92EF92FF920F9331
S11348501F93CF93DF931F92CDB7DEB78C017B01FB
S1134860811522E0920771F461E270E082E07ED16A
S1134870C82ED12C60E270E082E078D1DC2CCC240C
S1134880C82A10C080349240C1F565E270E082E02D
S11348906DD1C82ED12C64E270E082E067D1DC2CAB
S11348A0CC24C82A8FB78983F894B980C801CEDD97
S11348B0F801808192E09083C486D586F701258132
S11348C03681F801208F318FF7019281F8019283AC
S11348D0F7019481F8019483F7019381F80193839C
S11348E0F7019181F80191838170F7019081892BFF
S11348F0F8018083C801CBDDBFBE0F90DF91CF915B
S11349001F910F91FF90EF90DF90CF90BF9008958B
S1134910DF92EF92FF920F931F93CF93DF931F9237
S1134920CDB7DEB78C017B018FB78983F894D9802A
S1134930C8018CDDF8018081807CF7018083F80157
S1134940808D918DF70185839683F8018281F7012B
S11349508283F8018481F7018483F8018381F7015C
S11349608383F8018181F7018183C80190DDDFBE73
S11349700F90DF91CF911F910F91FF90EF90DF90F7
S11349800895AF92BF92CF92DF92EF92FF920F936E
S11349901F93CF93DF931F92CDB7DEB76C01B62E72
S11349A07A01862F837029F4962F9695969582E046
S11349B002C0962F80E090FF8F5F8601005E1F4F3C
S11349C098E0899F000D111D11248FB78983F894F5
S11349D0A980C6013BDDF7018081F8018083F701DE
S11349E08281F8018283F7018181F8018183B0FE1D
S11349F004C0F7018381F8018683C60148DDAFBE98
S1134A000F90DF91CF911F910F91FF90EF90DF9066
S1134A10CF90BF90AF900895AF92BF92CF92DF92A4
S1134A20EF92FF920F931F93CF93DF931F92CDB713
S1134A30DEB76C01B62E7A01862F837029F4962F87
S1134A409695969582E002C0962F80E090FF8F5F46
S1134A508601005E1F4F98E0899F000D111D1124EF
S1134A608FB78983F894A980C601F0DCF8018081AE
S1134A70F7018083F8018281F7018283F801818143
S1134A80F7018183B0FE04C0F8018681F7018383B6
S1134A90C601FDDCAFBE0F90DF91CF911F910F9146
S1134AA0FF90EF90DF90CF90BF90AF9008951BBE22
S1134AB0FC0128ED24BF60830895DC01E0ECF1E003
S1134AC097859923ECF3ECECF1E080818860808396
S1134AD0B05F8C919081977F90830895E0ECF1E032
S1134AE087858823ECF38091CF0181FF07C086E39B
S1134AF08093CA0161E08BEC91E0D9CF0895E0EC9A
S1134B00F1E097859923ECF3ACECB1E09C919860CB
S1134B109C93E82FF0E0F05F60838C91877F8C9307
S1134B200895FF920F931F93CF93DF93182FF92EBD
S1134B30C62F0091CA01D2DFE0ECF1E0878588231B
S1134B40ECF36C2F812FDBDFC0ECD1E01A82F98209
S1134B50188385E38A8761E08BEC91E0A8DF0A87FC
S1134B60DF91CF911F910F91FF9008954091CA0159
S1134B70E62FF72F8093CA0184914093CA010895C8
S1134B8004C061507109810991096115710581059C
S1134B909105B9F7089510922004E0E2F4E0218130
S1134BA020FDFDCFE0E2F4E0648375838683978380
S1134BB081E08083089580E180932104E0E2F4E0C1
S1134BC0818184FDFDCF609124047091250480913E
S1134BD02604909127040895CF93DF93D82FC09192
S1134BE0F10064E080E00E949410CC237CF0C0FFCC
S1134BF004C0D1110DC083E010C0C1FD0BC082E020
S1134C008093F000C2FD08C080E007C081E005C0C9
S1134C1082E003C084E001C085E0DF91CF91089574
S1134C20CF93DF9364E080E00E949410C0EFD0E063
S1134C3088818260888361E080EF90E038DF88813A
S1134C408460888361E273E080E090E099DF88818A
S1134C5088608883E0EFF0E0818183FFFDCF1092CC
S1134C602004E0E2F4E0818180FDFDCFE0E2F4E0A5
S1134C708FEF9FEFDC0180879187A287B38714822F
S1134C80158216821782818180FDFDCFE0E2F4E077
S1134C90128281E08083818180FDFDCFDF91CF91FD
S1134CA008951F920F920FB60F9211240BB60F9214
S1134CB02F933F934F935F936F937F938F939F9320
S1134CC0AF93BF93CF93DF93EF93FF93109222049C
S1134CD0C0917F2BD091802B209719F06CDFFE01BF
S1134CE01995FF91EF91DF91CF91BF91AF919F9172
S1134CF08F917F916F915F914F913F912F910F9081
S1134D000BBE0F900FBE0F901F9018951F920F921D
S1134D100FB60F9211240BB60F922F933F934F931C
S1134D205F936F937F938F939F93AF93BF93EF930F
S1134D30FF93E0913E2AF0913F2A309709F01995AC
S1134D40FF91EF91BF91AF919F918F917F916F915F
S1134D505F914F913F912F910F900BBE0F900FBE1B
S1134D600F901F9018951F920F920FB60F92112457
S1134D700BB60F922F933F934F935F936F937F9351
S1134D808F939F93AF93BF93EF93FF93E0913C2A4C
S1134D90F0913D2A309709F01995FF91EF91BF9159
S1134DA0AF919F918F917F916F915F914F913F91BF
S1134DB02F910F900BBE0F900FBE0F901F90189560
S1134DC01F920F920FB60F9211240BB60F922F93CE
S1134DD03F934F935F936F937F938F939F93AF937F
S1134DE0BF93EF93FF93E0913A2AF0913B2A3097D7
S1134DF009F01995FF91EF91BF91AF919F918F9118
S1134E007F916F915F914F913F912F910F900BBEC6
S1134E100F900FBE0F901F9018951F920F920FB610
S1134E200F9211240BB60F922F933F934F935F93DE
S1134E306F937F938F939F93AF93BF93EF93FF935E
S1134E40E091382AF091392A309709F01995FF91A9
S1134E50EF91BF91AF919F918F917F916F915F91EE
S1134E604F913F912F910F900BBE0F900FBE0F905B
S1134E701F9018951F920F920FB60F9211240BB624
S1134E800F922F933F934F935F936F937F938F93DF
S1134E909F93AF93BF93EF93FF93E091362AF091E2
S1134EA0372A309709F01995FF91EF91BF91AF918F
S1134EB09F918F917F916F915F914F913F912F912E
S1134EC00F900BBE0F900FBE0F901F9018951F925E
S1134ED00F920FB60F9211240BB60F922F933F939C
S1134EE04F935F936F937F938F939F93AF93BF93EE
S1134EF0EF93FF93E091342AF091352A309709F02B
S1134F001995FF91EF91BF91AF919F918F917F91EF
S1134F106F915F914F913F912F910F900BBE0F9026
S1134F200FBE0F901F9018951F920F920FB60F92FD
S1134F3011240BB60F922F933F934F935F936F936C
S1134F407F938F939F93AF93BF93EF93FF93E091DE
S1134F50322AF091332A309709F01995FF91EF9195
S1134F60BF91AF919F918F917F916F915F914F917D
S1134F703F912F910F900BBE0F900FBE0F901F907B
S1134F8018951F920F920FB60F9211240BB60F9221
S1134F902F933F934F935F936F937F938F939F933D
S1134FA0AF93BF93EF93FF93E091302AF091312AAE
S1134FB0309709F01995FF91EF91BF91AF919F91AF
S1134FC08F917F916F915F914F913F912F910F90AE
S1134FD00BBE0F900FBE0F901F9018951F920F924B
S1134FE00FB60F9211240BB60F922F933F934F934A
S1134FF05F936F937F938F939F93AF93BF93EF933D
S1135000FF93E0912E2AF0912F2A309709F01995F9
S1135010FF91EF91BF91AF919F918F917F916F918C
S11350205F914F913F912F910F900BBE0F900FBE48
S11350300F901F9018951F920F920FB60F92112484
S11350400BB60F922F933F934F935F936F937F937E
S11350508F939F93AF93BF93EF93FF93E0912C2A89
S1135060F0912D2A309709F01995FF91EF91BF9196
S1135070AF919F918F917F916F915F914F913F91EC
S11350802F910F900BBE0F900FBE0F901F9018958D
S11350901F920F920FB60F9211240BB60F922F93FB
S11350A03F934F935F936F937F938F939F93AF93AC
S11350B0BF93EF93FF93E0912A2AF0912B2A309724
S11350C009F01995FF91EF91BF91AF919F918F9145
S11350D07F916F915F914F913F912F910F900BBEF4
S11350E00F900FBE0F901F9018951F920F920FB63E
S11350F00F9211240BB60F922F933F934F935F930C
S11351006F937F938F939F93AF93BF93EF93FF938B
S1135110E091282AF091292A309709F01995FF91F6
S1135120EF91BF91AF919F918F917F916F915F911B
S11351304F913F912F910F900BBE0F900FBE0F9088
S11351401F9018951F920F920FB60F9211240BB651
S11351500F922F933F934F935F936F937F938F930C
S11351609F93AF93BF93EF93FF93E091262AF0911F
S1135170272A309709F01995FF91EF91BF91AF91CC
S11351809F918F917F916F915F914F913F912F915B
S11351900F900BBE0F900FBE0F901F9018951F928B
S11351A00F920FB60F9211240BB60F922F933F93C9
S11351B04F935F936F937F938F939F93AF93BF931B
S11351C0EF93FF93E091242AF091252A309709F078
S11351D01995FF91EF91BF91AF919F918F917F911D
S11351E06F915F914F913F912F910F900BBE0F9054
S11351F00FBE0F901F9018951F920F920FB60F922B
S113520011240BB60F922F933F934F935F936F9399
S11352107F938F939F93AF93BF93EF93FF93E0910B
S1135220222AF091232A309709F01995FF91EF91E2
S1135230BF91AF919F918F917F916F915F914F91AA
S11352403F912F910F900BBE0F900FBE0F901F90A8
S113525018951F920F920FB60F9211240BB60F924E
S11352602F933F934F935F936F937F938F939F936A
S1135270AF93BF93EF93FF93E091202AF091212AFB
S1135280309709F01995FF91EF91BF91AF919F91DC
S11352908F917F916F915F914F913F912F910F90DB
S11352A00BBE0F900FBE0F901F9018951F920F9278
S11352B00FB60F9211240BB60F922F933F934F9377
S11352C05F936F937F938F939F93AF93BF93EF936A
S11352D0FF93E0911E2AF0911F2A309709F0199547
S11352E0FF91EF91BF91AF919F918F917F916F91BA
S11352F05F914F913F912F910F900BBE0F900FBE76
S11353000F901F9018951F920F920FB60F921124B1
S11353100BB60F922F933F934F935F936F937F93AB
S11353208F939F93AF93BF93EF93FF93E0911C2AC6
S1135330F0911D2A309709F01995FF91EF91BF91D3
S1135340AF919F918F917F916F915F914F913F9119
S11353502F910F900BBE0F900FBE0F901F901895BA
S11353601F920F920FB60F9211240BB60F922F9328
S11353703F934F935F936F937F938F939F93AF93D9
S1135380BF93EF93FF93E0911A2AF0911B2A309771
S113539009F01995FF91EF91BF91AF919F918F9172
S11353A07F916F915F914F913F912F910F900BBE21
S11353B00F900FBE0F901F9018951F920F920FB66B
S11353C00F9211240BB60F922F933F934F935F9339
S11353D06F937F938F939F93AF93BF93EF93FF93B9
S11353E0E091182AF091192A309709F01995FF9144
S11353F0EF91BF91AF919F918F917F916F915F9149
S11354004F913F912F910F900BBE0F900FBE0F90B5
S11354101F9018951F920F920FB60F9211240BB67E
S11354200F922F933F934F935F936F937F938F9339
S11354309F93AF93BF93EF93FF93E091162AF0915C
S1135440172A309709F01995FF91EF91BF91AF9109
S11354509F918F917F916F915F914F913F912F9188
S11354600F900BBE0F900FBE0F901F9018951F92B8
S11354700F920FB60F9211240BB60F922F933F93F6
S11354804F935F936F937F938F939F93AF93BF9348
S1135490EF93FF93E091142AF091152A309709F0C5
S11354A01995FF91EF91BF91AF919F918F917F914A
S11354B06F915F914F913F912F910F900BBE0F9081
S11354C00FBE0F901F9018951F920F920FB60F9258
S11354D011240BB60F922F933F934F935F936F93C7
S11354E07F938F939F93AF93BF93EF93FF93E09139
S11354F0122AF091132A309709F01995FF91EF9130
S1135500BF91AF919F918F917F916F915F914F91D7
S11355103F912F910F900BBE0F900FBE0F901F90D5
S113552018951F920F920FB60F9211240BB60F927B
S11355302F933F934F935F936F937F938F939F9397
S1135540AF93BF93EF93FF93E091102AF091112A48
S1135550309709F01995FF91EF91BF91AF919F9109
S11355608F917F916F915F914F913F912F910F9008
S11355700BBE0F900FBE0F901F9018951F920F92A5
S11355800FB60F9211240BB60F922F933F934F93A4
S11355905F936F937F938F939F93AF93BF93EF9397
S11355A0FF93E0910E2AF0910F2A309709F0199594
S11355B0FF91EF91BF91AF919F918F917F916F91E7
S11355C05F914F913F912F910F900BBE0F900FBEA3
S11355D00F901F9018951F920F920FB60F921124DF
S11355E00BB60F922F933F934F935F936F937F93D9
S11355F08F939F93AF93BF93EF93FF93E0910C2A04
S1135600F0910D2A309709F01995FF91EF91BF9110
S1135610AF919F918F917F916F915F914F913F9146
S11356202F910F900BBE0F900FBE0F901F901895E7
S11356301F920F920FB60F9211240BB60F922F9355
S11356403F934F935F936F937F938F939F93AF9306
S1135650BF93EF93FF93E0910A2AF0910B2A3097BE
S113566009F01995FF91EF91BF91AF919F918F919F
S11356707F916F915F914F913F912F910F900BBE4E
S11356800F900FBE0F901F9018951F920F920FB698
S11356900F9211240BB60F922F933F934F935F9366
S11356A06F937F938F939F93AF93BF93EF93FF93E6
S11356B0E091082AF091092A309709F01995FF9191
S11356C0EF91BF91AF919F918F917F916F915F9176
S11356D04F913F912F910F900BBE0F900FBE0F90E3
S11356E01F9018951F920F920FB60F9211240BB6AC
S11356F00F922F933F934F935F936F937F938F9367
S11357009F93AF93BF93EF93FF93E091062AF09199
S1135710072A309709F01995FF91EF91BF91AF9146
S11357209F918F917F916F915F914F913F912F91B5
S11357300F900BBE0F900FBE0F901F9018951F92E5
S11357400F920FB60F9211240BB60F922F933F9323
S11357504F935F936F937F938F939F93AF93BF9375
S1135760EF93FF93E091042AF091052A309709F012
S11357701995FF91EF91BF91AF919F918F917F9177
S11357806F915F914F913F912F910F900BBE0F90AE
S11357900FBE0F901F9018951F920F920FB60F9285
S11357A011240BB60F922F933F934F935F936F93F4
S11357B07F938F939F93AF93BF93EF93FF93E09166
S11357C0022AF091032A309709F01995FF91EF917D
S11357D0BF91AF919F918F917F916F915F914F9105
S11357E03F912F910F900BBE0F900FBE0F901F9003
S11357F018951F920F920FB60F9211240BB60F92A9
S11358002F933F934F935F936F937F938F939F93C4
S1135810AF93BF93EF93FF93E091002AF091012A95
S1135820309709F01995FF91EF91BF91AF919F9136
S11358308F917F916F915F914F913F912F910F9035
S11358400BBE0F900FBE0F901F9018951F920F92D2
S11358500FB60F9211240BB60F922F933F934F93D1
S11358605F936F937F938F939F93AF93BF93EF93C4
S1135870FF93E091FE29F091FF29309709F01995E3
S1135880FF91EF91BF91AF919F918F917F916F9114
S11358905F914F913F912F910F900BBE0F900FBED0
S11358A00F901F9018951F920F920FB60F9211240C
S11358B00BB60F922F933F934F935F936F937F9306
S11358C08F939F93AF93BF93EF93FF93E091FC2942
S11358D0F091FD29309709F01995FF91EF91BF914F
S11358E0AF919F918F917F916F915F914F913F9174
S11358F02F910F900BBE0F900FBE0F901F90189515
S11359001F920F920FB60F9211240BB60F922F9382
S11359103F934F935F936F937F938F939F93AF9333
S1135920BF93EF93FF93E091FA29F091FB2930970D
S113593009F01995FF91EF91BF91AF919F918F91CC
S11359407F916F915F914F913F912F910F900BBE7B
S11359500F900FBE0F901F9018951F920F920FB6C5
S11359600F9211240BB60F922F933F934F935F9393
S11359706F937F938F939F93AF93BF93EF93FF9313
S1135980E091F829F091F929309709F01995FF91E0
S1135990EF91BF91AF919F918F917F916F915F91A3
S11359A04F913F912F910F900BBE0F900FBE0F9010
S11359B01F9018951F93CF93DF931F921F92CDB71B
S11359C0DEB72FB72A83F8941A81282F392F21158F
S11359D088E0380749F461E083E00E94941064E0B1
S11359E083E00E9494104FC0203488E0380749F4C3
S11359F062E083E00E94941064E083E00E949410CB
S1135A0042C0211589E0380749F461E084E00E942E
S1135A10941064E084E00E94941035C0203489E03E
S1135A20380749F462E084E00E94941064E084E062
S1135A300E94941028C021158AE0380749F461E0D7
S1135A4085E00E94941064E085E00E9494101BC0DD
S1135A5020348AE0380749F462E085E00E9494101B
S1135A6064E085E00E9494100EC021153B4049F487
S1135A7061E086E00E94941064E086E00E94941045
S1135A8002C01FBF10C08091762B8F3F09F4FFCF57
S1135A908FB78983F8949981E5E7FBE281818F5F71
S1135AA081839FBF1FBF0F900F90DF91CF911F91F4
S1135AB00895811528E0920729F460933A2A709397
S1135AC03B2A0895803428E0920729F460932E2A13
S1135AD070932F2A0895811529E0920729F4609381
S1135AE0262A7093272A0895803429E0920729F4FE
S1135AF060931A2A70931B2A089581152AE092074D
S1135B0029F46093122A7093132A089580342AE0AA
S1135B10920729F46093062A7093072A0895811541
S1135B209B4021F46093FE297093FF290895CF923E
S1135B30DF92EF92FF920F931F93CF93DF93EC01C9
S1135B40D901C801B695A795979587954817590720
S1135B506A077B0778F46A017B01CC0CDD1CEE1C20
S1135B60FF1CC901B801A70196010E94F54121500B
S1135B70310902C020E030E0832F8F708F832E83A1
S1135B80DF91CF911F910F91FF90EF90DF90CF9015
S1135B900895DF92EF92FF920F931F93CF93DF93B9
S1135BA01F92CDB7DEB77C018B01009709F4CFC1FA
S1135BB0803C910529F460E180E00E949410C7C103
S1135BC080E8E81681E0F80629F462E080E00E94AB
S1135BD09410BDC1E114E1E0FE0629F461E080E027
S1135BE00E949410B4C1F0E8EF16F3E0FF0629F424
S1135BF061E081E00E949410AAC130E9E31633E029
S1135C00F30629F461E082E00E949410A0C1E1143B
S1135C1082E0F80629F462E081E00E94941097C1C2
S1135C20E0E4EE16E2E0FE0629F462E082E00E947F
S1135C3094108DC1F0E2EF16F3E0FF0629F464E05E
S1135C4082E00E94941083C1E11438E0F30629F441
S1135C5061E083E00E9494107AC1E11489E0F806BF
S1135C6029F461E084E00E94941071C1E114EAE037
S1135C70FE0629F461E085E00E94941068C1E114F5
S1135C80FBE0FF0629F461E086E00E9494105FC106
S1135C9030E4E31638E0F30629F462E083E00E947E
S1135CA0941055C180E4E81689E0F80629F462E00E
S1135CB084E00E9494104BC1E0E4EE16EAE0FE0694
S1135CC029F462E085E00E94941041C1F0E9EF16E6
S1135CD0F8E0FF0629F464E083E00E94941037C1E1
