:10000000FDC000001CC100001AC1000018C10000A2
:1000100016C1000014C1000012C1000010C1000090
:100020000EC100000CC100000AC1000008C10000A0
:1000300006C1000004C1000064C600008FC60000B5
:10004000BAC60000E5C6000010C700003BC70000AC
:1000500066C7000091C70000BCC70000E7C70000EA
:10006000EEC00000ECC00000EAC00000E8C00000E4
:10007000E6C00000E4C00000E2C00000E0C00000F4
:10008000DEC00000DCC00000DAC00000D8C0000004
:10009000D6C00000D4C00000D2C00000D0C0000014
:1000A000CEC00000CCC00000CAC00000C8C0000024
:1000B000C6C00000C4C00000C2C000000C94050A05
:1000C0000C94320A0C945F0A0C948C0A0C94B90AB2
:1000D0000C94E60A0C94130B0C94400B0C946D0BCF
:1000E0000C949A0BACC00000AAC00000A8C000008D
:1000F000A6C00000A4C00000A2C00000A0C0000074
:100100009EC000009CC000009AC0000098C0000083
:1001100096C0000094C0000092C0000090C0000093
:100120008EC000008CC000008AC0000088C00000A3
:1001300086C00000A8C70000D3C70000FEC70000AB
:100140000C94CA080C94F7080C9424090C945109D7
:100150000C947E090C94AB090C94D80970C0000073
:100160006EC000006CC000006AC0000068C00000E3
:1001700066C0000064C0000062C0000060C00000F3
:100180005EC000005CC000005AC0000058C0000003
:1001900056C0000054C0000052C0000050C0000013
:1001A0004EC000004CC000004AC0000048C0000023
:1001B0000C94C70B0C94F40B0C94210C0C944E0C67
:1001C0000C947B0C0C94A80C3AC0000038C00000C2
:1001D00036C0000034C0000032C0000030C0000053
:1001E0002EC000002CC000002AC0000028C0000063
:1001F00026C0000024C0000022C0000011241FBE41
:10020000CFEFCDBFDFE5DEBF00E00CBF10E2A0E026
:10021000B0E2EAE7F0E200E00BBF02C007900D9207
:10022000A630B107D9F722E2A6E0B0E201C01D92E4
:10023000A635B207E1F70E94E90F0C943B10E0CE1F
:1002400004C0615071098109910961157105810529
:100250009105B9F70895BF92CF92DF92EF92FF9286
:100260000F931F93CF93DF931F92CDB7DEB700E0BC
:1002700016E06894FF24F3F8F801F6826EE070E06F
:1002800080E090E0DDDFF801F5826EE070E080E074
:1002900090E0D6DF0F2EFBE2BF2EF02DB98280EA70
:1002A00099E065D4C12CD12C760100E412E42FE052
:1002B00030E043E0BE016F5F7F4F80EA99E086D473
:1002C00000E616E0FF24F394F801F682B982BE013D
:1002D0006F5F7F4F80EA99E093D4F801F682E0EAFD
:1002E000F9E0818185FFFDCF80EA8093A009E0EAF3
:1002F000F9E0818186FFFDCFE0EAF9E080E48183C7
:100300008081BE016F5F7F4F80EA99E08FD48BE2DE
:100310008983BE016F5F7F4F80EA99E071D481E0ED
:1003200080936606E0EAF9E0818185FFFDCF86EAE9
:100330008093A009E0EAF9E0818186FFFDCFE0EA41
:10034000F9E080E481838081BE016F5F7F4F80EAA6
:1003500099E06CD48BE28983BE016F5F7F4F80EAA6
:1003600099E04ED481E080936606E0EAF9E081816D
:1003700085FFFDCF88EC8093A009E0EAF9E0818158
:1003800086FFFDCFE0EAF9E080E481838081BE0151
:100390006F5F7F4F80EA99E049D48BE28983BE0189
:1003A0006F5F7F4F80EA99E02BD481E080936606EF
:1003B000E0EAF9E0818185FFFDCF82EA8093A00920
:1003C000E0EAF9E0818186FFFDCFE0EAF9E080E430
:1003D00081838081BE016F5F7F4F80EA99E026D4E0
:1003E0008BE28983BE016F5F7F4F80EA99E008D47A
:1003F00081E080936606E0EAF9E0818185FFFDCF28
:100400008FE28093A009E0EAF9E0818186FFFDCFC9
:10041000E0EAF9E080E481838081BE016F5F7F4F75
:1004200080EA99E003D48BE28983BE016F5F7F4F3E
:1004300080EA99E0E5D381E080936606E0EAF9E09E
:10044000818185FFFDCF88EF8093A009E0EAF9E084
:10045000818186FFFDCFE0EAF9E080E4818380813D
:10046000BE016F5F7F4F80EA99E0E0D38BE2898322
:10047000BE016F5F7F4F80EA99E0C2D381E0809335
:100480006606E0EAF9E0818185FFFDCF1092A009C0
:10049000E0EAF9E0818186FFFDCFE0EAF9E080E45F
:1004A00081838081BE016F5F7F4F80EA99E0BED378
:1004B0008BE28983BE016F5F7F4F80EA99E0A0D312
:1004C00081E080936606E0EAF9E0818185FFFDCF57
:1004D00081E28093A009E0EAF9E0818186FFFDCF07
:1004E000E0EAF9E080E481838081BE016F5F7F4FA5
:1004F00080EA99E09BD38BE28983BE016F5F7F4FD7
:1005000080EA99E07DD381E080936606E0EAF9E035
:10051000818185FFFDCF81E88093A009E0EAF9E0C1
:10052000818186FFFDCFE0EAF9E080E4818380816C
:10053000BE016F5F7F4F80EA99E078D38BE28983B9
:10054000BE016F5F7F4F80EA99E05AD381E08093CC
:100550006606E0EAF9E0818185FFFDCF81E28093C4
:10056000A009E0EAF9E0818186FFFDCFE0EAF9E049
:1005700080E481838081BE016F5F7F4F80EA99E0D4
:1005800055D38BE28983BE016F5F7F4F80EA99E08C
:1005900037D381E080936606E0EAF9E0818185FF48
:1005A000FDCF8FEA8093A009E0EAF9E0818186FF20
:1005B000FDCFE0EAF9E080E481838081BE016F5FD6
:1005C0007F4F80EA99E032D30F90DF91CF911F9156
:1005D0000F91FF90EF90DF90CF90BF900895CF9351
:1005E000DF931F921F92CDB7DEB78FEF809370001D
:1005F00080937100809372008093730080937400E5
:1006000080937500809376006CE081E490E073D372
:100610008FB78A83F8949A81E0E5F0E08081826068
:1006200080839FBF818181FFFDCF61E080E490E006
:1006300062D38FB78983F8949981E0E5F0E08081F7
:100640008E7F80839FBF0F900F90DF91CF91089591
:10065000CF93DF931F92CDB7DEB79FB79983F894FE
:100660009981E82FF0E0E059FF4F60958081682381
:1006700060839FBF0F90DF91CF910895FF920F93FA
:100680001F93CF93DF931F92CDB7DEB7082FF62EBF
:10069000142F36D10F70006B8BE28983BE016F5F20
:1006A0007F4F80EA99E0ACD281E080936606E0EA71
:1006B000F9E0918195FFFDCF0093A009E0EAF9E010
:1006C000818186FFFDCFE0EAF9E080E481838081CB
:1006D000BE016F5F7F4F80EA99E0A8D20F2D0F77A0
:1006E00002950F7000618BE28983BE016F5F7F4FBF
:1006F00080EA99E085D281E080936606E0EAF9E03D
:10070000818185FFFDCF0093A009E0EAF9E08181B6
:1007100086FFFDCFE0EAF9E080E481838081BE01BD
:100720006F5F7F4F80EA99E081D20F2D0F708BE2CF
:100730008983BE016F5F7F4F80EA99E061D281E0DB
:1007400080936606E0EAF9E0818185FFFDCF0093A2
:10075000A009E0EAF9E0818186FFFDCFE0EAF9E057
:1007600080E481838081BE016F5F7F4F80EA99E0E2
:100770005DD28BE28983BE016F5F7F4F80EA99E093
:100780003FD281E080936506E0EAF9E0818185FF50
:10079000FDCF1093A009E0EAF9E0818186FFFDCF4B
:1007A000E0EAF9E080E48183808181E0809366065D
:1007B000BE016F5F7F4F80EA99E038D20F90DF91E2
:1007C000CF911F910F91FF9008950F931F93CF9397
:1007D000DF931F92CDB7DEB786E090E28CD03BDD91
:1007E0008BE28983BE016F5F7F4F80EA99E008D278
:1007F00081E080936606E0EAF9E0818185FFFDCF24
:1008000080E48093A009E0EAF9E0818186FFFDCFD2
:10081000E0EAF9E080E481838081BE016F5F7F4F71
:1008200080EA99E003D200E00AC040E0612F802F07
:1008300025DF1F5F1038C9F70F5F043011F010E09B
:10084000F4CF0F90DF91CF911F910F910895FF92F8
:100850000F931F93CF93DF9388234CF1603238F5C9
:10086000D42FC82FF62EF694F694F69470E088E014
:10087000F89E60197109112481E090E08C0102C09A
:10088000000F111F6A95E2F76C2F8F2D47D0D130E2
:1008900021F028F0D23031F006C0802B04C0009542
:1008A000802301C08027482F6C2F8F2DE7DEDF913A
:1008B000CF911F910F91FF9008950F931F93CF93A6
:1008C000DF93D82F162F042FC22F28D0C13021F04C
:1008D00028F0C23031F006C0802B04C00095802380
:1008E00001C08027482F612F8D2FC8DEDF91CF9167
:1008F0001F910F91089580930622909307220895E7
:10090000209106223091072290E8899F200D311D09
:100910001124F901E60FF11D40830895209106226C
:100920003091072290E8899F200D311D1124F90193
:10093000E60FF11D80810895EF92FF920F931F93B0
:10094000CF93DF93442309F446C0122FD82F9FEF93
:10095000960F940F691303C0422F79DF3CC09F317B
:1009600008F09FE1C62FC695C695C695092F069536
:100970000695069567702FEF30E0A90102C0440F7D
:10098000551F6A95E2F7977067E070E0FB01E91B7D
:10099000F109790102C0F594E794EA95E2F7C013F2
:1009A00006C04E21212F6D2F8C2F87DF14C0212FE1
:1009B0006D2F8C2F82DFCF5FC01740F4212F4FEFB8
:1009C0006D2F8C2F7ADFCF5FC017C0F3212F4E2DF4
:1009D0006D2F802F72DFDF91CF911F910F91FF90CC
:1009E000EF9008955F926F927F928F929F92AF9255
:1009F000BF92CF92DF92EF92FF920F931F93CF930C
:100A0000DF93982EA62EC42FB22E411103C0422F81
:100A10001EDF76C0842F90E0880F991F23E030E01E
:100A20007901E81AF90AC62ED92C192DD1E0802FA8
:100A30008370682E802F8C70782E802F8073882E84
:100A4000007C01C0D82F55245A945D0E662069F0B1
:100A50002B2D4D2F6C2D892D8C0F6EDF2B2D41E012
:100A60004C0F6A2D6C1B812F67DF772069F02B2DCF
:100A70004D2F6C2D892D8C1B5FDF2B2D41E04C0FF2
:100A80006A2D6C1B8D2D58DF882061F02B2D4D2F8A
:100A90006A2D892D8C1B50DF2B2D41E04C0F6A2DC8
:100AA0008D2D4ADF002361F02B2D4D2F6A2D892DCE
:100AB0008C0F42DF2B2D41E04C0F6A2D812F3CDF44
:100AC000FF2054F4852D90E0880F991F880F991FFF
:100AD0000696E80EF91E0CC0852D90E08C1B91093E
:100AE000880F991F880F991F0A96E80EF91EC150AA
:100AF00081E08D0F1F5FDA94CA94CD1708F0A2CF62
:100B0000DF91CF911F910F91FF90EF90DF90CF90E9
:100B1000BF90AF909F908F907F906F905F9008955F
:100B2000CF93DF93FC0120E030E0C62FD0E0DE0160
:100B3000022E02C0B595A7950A94E2F7A0FD508B4E
:100B40002F5F3F4F31962830310589F740FF0AC0AB
:100B500041FF03C0FC01658302C0FC016683FC0108
:100B6000618302C0FC016283DF91CF910895803AD6
:100B700028E0920721F460E183E06ACD0895803B8C
:100B800028E0920721F460E283E062CD0895803A84
:100B900029E0920721F460E184E05ACD0895803B7A
:100BA00029E0920721F460E284E052CD0895803A72
:100BB0002AE0920721F460E185E04ACD0895803A69
:100BC0009B4019F460E186E043CD08950F931F9395
:100BD000CF93DF9300D000D0CDB7DEB709831A835F
:100BE0002B833C834D831E82BE016F5F7F4FCBD72B
:100BF0002696CDBFDEBFDF91CF911F910F91089553
:100C0000FB018081E82FE695E695E69540E2E49FBA
:100C1000F0011124FA5F877021E030E0A90102C0E1
:100C2000440F551F8A95E2F746830895FB018081A2
:100C3000E82FE695E695E69540E2E49FF001112461
:100C4000FA5F877021E030E0A90102C0440F551F10
:100C50008A95E2F74583089543E050E061E080EE35
:100C600097E05EDF43E050E062E080EE97E058DF1F
:100C700043E050E060E180E696E052DF41E050E47E
:100C800060E280E696E04CDF40E05BE160E280E815
:100C900096E046DF40E05BE162E080EA96E040DF1C
:100CA00040E05BE164E080EA96E03ADF43E050E058
:100CB00062E080E696E034DF43E050E068E080E602
:100CC00096E02EDF43E050E068E080EA96E028DF1F
:100CD00043E050E061E080E696E022DF43E050E050
:100CE00068E080E096E01CDF41E050E060E180E8F1
:100CF00096E016CF08951BBEFC0128ED24BF60834B
:100D000008951F920F920FB60F9211240BB60F92F7
:100D10002F933F934F935F936F937F938F939F9303
:100D2000AF93BF93EF93FF93E0914E22F0914F2248
:100D3000309709F01995FF91EF91BF91AF919F9175
:100D40008F917F916F915F914F913F912F910F9074
:100D50000BBE0F900FBE0F901F9018951F920F9211
:100D60000FB60F9211240BB60F922F933F934F9310
:100D70005F936F937F938F939F93AF93BF93EF9303
:100D8000FF93E0914C22F0914D22309709F0199594
:100D9000FF91EF91BF91AF919F918F917F916F9153
:100DA0005F914F913F912F910F900BBE0F900FBE0F
:100DB0000F901F9018951F920F920FB60F9211244B
:100DC0000BB60F922F933F934F935F936F937F9345
:100DD0008F939F93AF93BF93EF93FF93E0914A223A
:100DE000F0914B22309709F01995FF91EF91BF9147
:100DF000AF919F918F917F916F915F914F913F91B3
:100E00002F910F900BBE0F900FBE0F901F90189553
:100E10001F920F920FB60F9211240BB60F922F93C1
:100E20003F934F935F936F937F938F939F93AF9372
:100E3000BF93EF93FF93E0914822F09149223097BE
:100E400009F01995FF91EF91BF91AF919F918F910B
:100E50007F916F915F914F913F912F910F900BBEBA
:100E60000F900FBE0F901F9018951F920F920FB604
:100E70000F9211240BB60F922F933F934F935F93D2
:100E80006F937F938F939F93AF93BF93EF93FF9352
:100E9000E0914622F0914722309709F01995FF9191
:100EA000EF91BF91AF919F918F917F916F915F91E2
:100EB0004F913F912F910F900BBE0F900FBE0F904F
:100EC0001F9018951F920F920FB60F9211240BB618
:100ED0000F922F933F934F935F936F937F938F93D3
:100EE0009F93AF93BF93EF93FF93E0914422F091D0
:100EF0004522309709F01995FF91EF91BF91AF917D
:100F00009F918F917F916F915F914F913F912F9121
:100F10000F900BBE0F900FBE0F901F9018951F9251
:100F20000F920FB60F9211240BB60F922F933F938F
:100F30004F935F936F937F938F939F93AF93BF93E1
:100F4000EF93FF93E0914222F0914322309709F012
:100F50001995FF91EF91BF91AF919F918F917F91E3
:100F60006F915F914F913F912F910F900BBE0F901A
:100F70000FBE0F901F9018951F920F920FB60F92F1
:100F800011240BB60F922F933F934F935F936F9360
:100F90007F938F939F93AF93BF93EF93FF93E091D2
:100FA0004022F0914122309709F01995FF91EF917D
:100FB000BF91AF919F918F917F916F915F914F9171
:100FC0003F912F910F900BBE0F900FBE0F901F906F
:100FD00018951F920F920FB60F9211240BB60F9215
:100FE0002F933F934F935F936F937F938F939F9331
:100FF000AF93BF93EF93FF93E0913E22F0913F2296
:10100000309709F01995FF91EF91BF91AF919F91A2
:101010008F917F916F915F914F913F912F910F90A1
:101020000BBE0F900FBE0F901F9018951F920F923E
:101030000FB60F9211240BB60F922F933F934F933D
:101040005F936F937F938F939F93AF93BF93EF9330
:10105000FF93E0913C22F0913D22309709F01995E1
:10106000FF91EF91BF91AF919F918F917F916F9180
:101070005F914F913F912F910F900BBE0F900FBE3C
:101080000F901F9018951F920F920FB60F92112478
:101090000BB60F922F933F934F935F936F937F9372
:1010A0008F939F93AF93BF93EF93FF93E0913A2277
:1010B000F0913B22309709F01995FF91EF91BF9184
:1010C000AF919F918F917F916F915F914F913F91E0
:1010D0002F910F900BBE0F900FBE0F901F90189581
:1010E0001F920F920FB60F9211240BB60F922F93EF
:1010F0003F934F935F936F937F938F939F93AF93A0
:10110000BF93EF93FF93E0913822F091392230970B
:1011100009F01995FF91EF91BF91AF919F918F9138
:101120007F916F915F914F913F912F910F900BBEE7
:101130000F900FBE0F901F9018951F920F920FB631
:101140000F9211240BB60F922F933F934F935F93FF
:101150006F937F938F939F93AF93BF93EF93FF937F
:10116000E0913622F0913722309709F01995FF91DE
:10117000EF91BF91AF919F918F917F916F915F910F
:101180004F913F912F910F900BBE0F900FBE0F907C
:101190001F9018951F920F920FB60F9211240BB645
:1011A0000F922F933F934F935F936F937F938F9300
:1011B0009F93AF93BF93EF93FF93E0913422F0910D
:1011C0003522309709F01995FF91EF91BF91AF91BA
:1011D0009F918F917F916F915F914F913F912F914F
:1011E0000F900BBE0F900FBE0F901F9018951F927F
:1011F0000F920FB60F9211240BB60F922F933F93BD
:101200004F935F936F937F938F939F93AF93BF930E
:10121000EF93FF93E0913222F0913322309709F05F
:101220001995FF91EF91BF91AF919F918F917F9110
:101230006F915F914F913F912F910F900BBE0F9047
:101240000FBE0F901F9018951F920F920FB60F921E
:1012500011240BB60F922F933F934F935F936F938D
:101260007F938F939F93AF93BF93EF93FF93E091FF
:101270003022F0913122309709F01995FF91EF91CA
:10128000BF91AF919F918F917F916F915F914F919E
:101290003F912F910F900BBE0F900FBE0F901F909C
:1012A00018951F920F920FB60F9211240BB60F9242
:1012B0002F933F934F935F936F937F938F939F935E
:1012C000AF93BF93EF93FF93E0912E22F0912F22E3
:1012D000309709F01995FF91EF91BF91AF919F91D0
:1012E0008F917F916F915F914F913F912F910F90CF
:1012F0000BBE0F900FBE0F901F9018951F920F926C
:101300000FB60F9211240BB60F922F933F934F936A
:101310005F936F937F938F939F93AF93BF93EF935D
:10132000FF93E0912C22F0912D22309709F019952E
:10133000FF91EF91BF91AF919F918F917F916F91AD
:101340005F914F913F912F910F900BBE0F900FBE69
:101350000F901F9018951F920F920FB60F921124A5
:101360000BB60F922F933F934F935F936F937F939F
:101370008F939F93AF93BF93EF93FF93E0912A22B4
:10138000F0912B22309709F01995FF91EF91BF91C1
:10139000AF919F918F917F916F915F914F913F910D
:1013A0002F910F900BBE0F900FBE0F901F901895AE
:1013B0001F920F920FB60F9211240BB60F922F931C
:1013C0003F934F935F936F937F938F939F93AF93CD
:1013D000BF93EF93FF93E0912822F0912922309759
:1013E00009F01995FF91EF91BF91AF919F918F9166
:1013F0007F916F915F914F913F912F910F900BBE15
:101400000F900FBE0F901F9018951F920F920FB65E
:101410000F9211240BB60F922F933F934F935F932C
:101420006F937F938F939F93AF93BF93EF93FF93AC
:10143000E0912622F0912722309709F01995FF912B
:10144000EF91BF91AF919F918F917F916F915F913C
:101450004F913F912F910F900BBE0F900FBE0F90A9
:101460001F9018951F920F920FB60F9211240BB672
:101470000F922F933F934F935F936F937F938F932D
:101480009F93AF93BF93EF93FF93E0912422F0914A
:101490002522309709F01995FF91EF91BF91AF91F7
:1014A0009F918F917F916F915F914F913F912F917C
:1014B0000F900BBE0F900FBE0F901F9018951F92AC
:1014C0000F920FB60F9211240BB60F922F933F93EA
:1014D0004F935F936F937F938F939F93AF93BF933C
:1014E000EF93FF93E0912222F0912322309709F0AD
:1014F0001995FF91EF91BF91AF919F918F917F913E
:101500006F915F914F913F912F910F900BBE0F9074
:101510000FBE0F901F9018951F920F920FB60F924B
:1015200011240BB60F922F933F934F935F936F93BA
:101530007F938F939F93AF93BF93EF93FF93E0912C
:101540002022F0912122309709F01995FF91EF9117
:10155000BF91AF919F918F917F916F915F914F91CB
:101560003F912F910F900BBE0F900FBE0F901F90C9
:1015700018951F920F920FB60F9211240BB60F926F
:101580002F933F934F935F936F937F938F939F938B
:10159000AF93BF93EF93FF93E0911E22F0911F2230
:1015A000309709F01995FF91EF91BF91AF919F91FD
:1015B0008F917F916F915F914F913F912F910F90FC
:1015C0000BBE0F900FBE0F901F9018951F920F9299
:1015D0000FB60F9211240BB60F922F933F934F9398
:1015E0005F936F937F938F939F93AF93BF93EF938B
:1015F000FF93E0911C22F0911D22309709F019957C
:10160000FF91EF91BF91AF919F918F917F916F91DA
:101610005F914F913F912F910F900BBE0F900FBE96
:101620000F901F9018951F920F920FB60F921124D2
:101630000BB60F922F933F934F935F936F937F93CC
:101640008F939F93AF93BF93EF93FF93E0911A22F1
:10165000F0911B22309709F01995FF91EF91BF91FE
:10166000AF919F918F917F916F915F914F913F913A
:101670002F910F900BBE0F900FBE0F901F901895DB
:101680001F920F920FB60F9211240BB60F922F9349
:101690003F934F935F936F937F938F939F93AF93FA
:1016A000BF93EF93FF93E0911822F09119223097A6
:1016B00009F01995FF91EF91BF91AF919F918F9193
:1016C0007F916F915F914F913F912F910F900BBE42
:1016D0000F900FBE0F901F9018951F920F920FB68C
:1016E0000F9211240BB60F922F933F934F935F935A
:1016F0006F937F938F939F93AF93BF93EF93FF93DA
:10170000E0911622F0911722309709F01995FF9178
:10171000EF91BF91AF919F918F917F916F915F9169
:101720004F913F912F910F900BBE0F900FBE0F90D6
:101730001F9018951F920F920FB60F9211240BB69F
:101740000F922F933F934F935F936F937F938F935A
:101750009F93AF93BF93EF93FF93E0911422F09187
:101760001522309709F01995FF91EF91BF91AF9134
:101770009F918F917F916F915F914F913F912F91A9
:101780000F900BBE0F900FBE0F901F9018951F92D9
:101790000F920FB60F9211240BB60F922F933F9317
:1017A0004F935F936F937F938F939F93AF93BF9369
:1017B000EF93FF93E0911222F0911322309709F0FA
:1017C0001995FF91EF91BF91AF919F918F917F916B
:1017D0006F915F914F913F912F910F900BBE0F90A2
:1017E0000FBE0F901F9018951F920F920FB60F9279
:1017F00011240BB60F922F933F934F935F936F93E8
:101800007F938F939F93AF93BF93EF93FF93E09159
:101810001022F0911122309709F01995FF91EF9164
:10182000BF91AF919F918F917F916F915F914F91F8
:101830003F912F910F900BBE0F900FBE0F901F90F6
:1018400018951F920F920FB60F9211240BB60F929C
:101850002F933F934F935F936F937F938F939F93B8
:10186000AF93BF93EF93FF93E0910E22F0910F227D
:10187000309709F01995FF91EF91BF91AF919F912A
:101880008F917F916F915F914F913F912F910F9029
:101890000BBE0F900FBE0F901F9018951F920F92C6
:1018A0000FB60F9211240BB60F922F933F934F93C5
:1018B0005F936F937F938F939F93AF93BF93EF93B8
:1018C000FF93E0910C22F0910D22309709F01995C9
:1018D000FF91EF91BF91AF919F918F917F916F9108
:1018E0005F914F913F912F910F900BBE0F900FBEC4
:1018F0000F901F9018951F920F920FB60F92112400
:101900000BB60F922F933F934F935F936F937F93F9
:101910008F939F93AF93BF93EF93FF93E0910A222E
:10192000F0910B22309709F01995FF91EF91BF913B
:10193000AF919F918F917F916F915F914F913F9167
:101940002F910F900BBE0F900FBE0F901F90189508
:101950001F920F920FB60F9211240BB60F922F9376
:101960003F934F935F936F937F938F939F93AF9327
:10197000BF93EF93FF93E0910822F09109223097F3
:1019800009F01995FF91EF91BF91AF919F918F91C0
:101990007F916F915F914F913F912F910F900BBE6F
:1019A0000F900FBE0F901F9018951F93CF93DF934A
:1019B0001F921F92CDB7DEB72FB72A83F8941A81F2
:1019C000282F392F211588E0380749F461E083E09A
:1019D0000E94280364E083E00E9428034FC0203463
:1019E00088E0380749F462E083E00E94280364E05D
:1019F00083E00E94280342C0211589E0380749F49A
:101A000061E084E00E94280364E084E00E942803EF
:101A100035C0203489E0380749F462E084E00E9450
:101A2000280364E084E00E94280328C021158AE08E
:101A3000380749F461E085E00E94280364E085E00E
:101A40000E9428031BC020348AE0380749F462E072
:101A500085E00E94280364E085E00E9428030EC010
:101A600021153B4049F461E086E00E94280364E0D0
:101A700086E00E94280302C01FBF10C0809151223F
:101A80008F3F09F4FFCF8FB78983F8949981E0E500
:101A9000F2E281818F5F81839FBF1FBF0F900F9004
:101AA000DF91CF911F910895811528E0920729F4C5
:101AB00060934E2270934F220895803428E092075D
:101AC00029F460934222709343220895811529E0FE
:101AD000920729F460933A2270933B220895803450
:101AE00029E0920729F460932E2270932F22089503
:101AF00081152AE0920729F4609326227093272209
:101B0000089580342AE0920729F460931A22709392
:101B10001B22089581159B4021F46093122270933B
:101B200013220895CF92DF92EF92FF920F931F93AB
:101B3000CF93DF93EC01D901C801B695A79597958E
:101B40008795481759076A077B0770F46A017B017C
:101B5000CC0CDD1CEE1CFF1CC901B801A7019601CD
:101B600068D22150310902C020E030E0832F8F700D
:101B70008F832E83DF91CF911F910F91FF90EF9074
:101B8000DF90CF900895DF92EF92FF920F931F9313
:101B9000CF93DF931F92CDB7DEB77C018B01009707
:101BA00009F4CFC1803C910529F460E180E00E94F6
:101BB0002803C7C180E8E81681E0F80629F462E04E
:101BC00080E00E942803BDC1E114E1E0FE0629F493
:101BD00061E080E00E942803B4C1F0E8EF16F3E072
:101BE000FF0629F461E081E00E942803AAC130E9E0
:101BF000E31633E0F30629F461E082E00E94280353
:101C0000A0C1E11482E0F80629F462E081E00E94BC
:101C1000280397C1E0E4EE16E2E0FE0629F462E054
:101C200082E00E9428038DC1F0E2EF16F3E0FF0688
:101C300029F464E082E00E94280383C1E11438E0C3
:101C4000F30629F461E083E00E9428037AC1E114DD
:101C500089E0F80629F461E084E00E94280371C15C
:101C6000E114EAE0FE0629F461E085E00E94280321
:101C700068C1E114FBE0FF0629F461E086E00E9400
:101C800028035FC130E4E31638E0F30629F462E08C
:101C900083E00E94280355C180E4E81689E0F80635
:101CA00029F462E084E00E9428034BC1E0E4EE16D0
:101CB000EAE0FE0629F462E085E00E94280341C1C3
:101CC000F0E9EF16F8E0FF0629F464E083E00E94F3
:101CD000280337C130E9E31639E0F30629F464E05C
:101CE00084E00E9428032DC180E9E8168AE0F80606
:101CF00029F464E085E00E94280323C1E0E9EE16A0
:101D0000EBE0FE0629F464E086E00E94280319C196
:101D1000F0ECEF16F8E0FF0629F468E083E00E949B
:101D200028030FC130ECE31639E0F30629F468E02C
:101D300084E00E94280305C180EAE81688E0F806DE
:101D400069F460E183E00E942803E0EAF8E084811E
:101D50008F7E8483F8012481225053C0F0EAEF166D
:101D6000F9E0FF0629F460E184E00E942803E9C05D
:101D700030EAE3163AE0F30629F460E185E00E94D8
:101D80002803DFC080EAE8168BE0F80629F460E15A
:101D900086E00E942803D5C0E0EBEE16E8E0FE06E0
:101DA00029F460E283E00E942803CBC0F0EBEF1639
:101DB000F9E0FF0629F460E284E00E942803C1C034
:101DC00030E8E31634E0F30629F460E483E00E948F
:101DD0002803B7C080EAE81684E0F80629F460E436
:101DE00085E00E942803ADC0F70184818F7E848343
:101DF000FB0124812250C701F0EAEF16F8E0FF064C
:101E000049F480914E0684FDA5C00F2EF1E1DF2E2E
:101E1000F02DA4C0803B38E0930791F0803AE9E0D0
:101E20009E0749F430916E0634FD9BC00F2EF9E1F8
:101E3000DF2EF02D16C0803BF9E09F07F1F004C0C3
:101E40000F2EF5E1DF2EF02D803A3AE0930749F4AA
:101E500080918E0684FD8AC00F2EF1E2DF2EF02DD8
:101E600015C0803A9B4091F48091AE0684FD0AC073
:101E70000F2EF9E2DF2EF02D09C00F2EFDE1DF2E2F
:101E8000F02D04C00F2EFDE2DF2EF02DED2DE69596
:101E9000E695E69530E2E39FF0011124FA5F3D2DCF
:101EA000377081E090E0032E02C0880F991F0A94DA
:101EB000E2F78183223010F040E001C040E4DF010E
:101EC0005096A30FB11D9FB79983F89439812C9137
:101ED00027702C939C91942B9C933FBF8583F70193
:101EE0008581806C8583F80184818D7F813029F420
:101EF000F70185818260858304C0F70185818D7F2C
:101F00008583F8018581882329F0F7018581846024
:101F1000858304C0F70185818B7F8583F80140812B
:101F200051816281738100E012E12AE730E0C7014C
:101F3000F9DDF701848188608483848180618483F2
:101F40001AC0F70184818F7E8483F8012481225096
:101F5000C70160CF0F2EF5E1DF2EF02D80EA98E06B
:101F60006ACF0F2EFDE1DF2EF02D7BCF0F2EF5E295
:101F7000DF2EF02D8BCF0F90DF91CF911F910F911E
:101F8000FF90EF90DF9008950F93CF93DF93C2E01F
:101F9000D0E208E120E042E06881809104200E94C4
:101FA000F20420910420309105208091002090912E
:101FB0000120820F931F80930420909305200FEF40
:101FC00021E042E068810E94F204DF91CF910F91FD
:101FD00008950E942C0687E08093A2000E94EF02E1
:101FE0000E94E50380E098E0E0DC64EC7FE080E0C4
:101FF00098E05ADDE0E0F8E08181887F81838CE21F
:1020000091E086A397A386818C7F868386818160F9
:10201000868378948081807F8760808380E180934D
:1020200085060FEF21E042E06FE08CE30E94F204AE
:10203000FFCFA1E21A2EAA1BBB1BFD010DC0AA1FD8
:10204000BB1FEE1FFF1FA217B307E407F50720F021
:10205000A21BB30BE40BF50B661F771F881F991F9C
:102060001A9469F760957095809590959B01AC01E5
:0A207000BD01CF010895F894FFCFE1
:06207A0001000F003C0014
:00000001FF
