S01800004558414D504C455F535953464F4E54312E737265633A
S113000046C2000063C2000061C200005FC200007B
S11300105DC200005BC2000059C2000057C200006C
S113002055C2000053C2000051C200004FC200007C
S11300304DC200004BC2000049C2000047C200008C
S113004045C2000043C2000041C200003FC200009C
S11300503DC200003BC2000039C2000037C20000AC
S113006035C2000033C2000031C200002FC20000BC
S11300702DC200002BC2000029C2000027C20000CC
S113008025C2000023C2000021C200001FC20000DC
S11300901DC200001BC2000019C2000017C20000EC
S11300A015C2000013C2000011C200000FC20000FC
S11300B00DC200000BC2000009C2000007C200000C
S11300C005C2000003C2000001C20000FFC100001D
S11300D0FDC10000FBC10000F9C10000F7C1000030
S11300E0F5C10000F3C10000F1C10000EFC1000040
S11300F0EDC10000EBC10000E9C10000E7C1000050
S1130100E5C10000E3C10000E1C10000DFC100005F
S1130110DDC10000DBC10000D9C10000D7C100006F
S1130120D5C10000D3C10000D1C10000CFC100007F
S1130130CDC10000CBC10000C9C10000C7C100008F
S1130140C5C10000C3C10000C1C10000BFC100009F
S1130150BDC10000BBC10000B9C10000B7C10000AF
S1130160B5C10000B3C10000B1C10000AFC10000BF
S1130170ADC10000ABC10000A9C10000A7C10000CF
S1130180A5C10000A3C10000A1C100009FC10000DF
S11301909DC100009BC1000099C1000097C10000EF
S11301A095C1000093C1000091C100008FC10000FF
S11301B08DC100008BC1000089C1000087C100000F
S11301C085C1000083C1000081C100007FC100001F
S11301D07DC100007BC1000079C1000077C100002F
S11301E075C1000073C1000071C100006FC100003F
S11301F06DC100006BC1000069C100000000000077
S1130200000000202020202000205050500000003A
S1130210005050F850F850502078A07028F020C0BA
S1130220C810204098186090A040A89068602040B2
S1130230000000001020404040201040201010100A
S11302402040005020F8205000002020F8202000FA
S113025000000000602040000000F80000000000E2
S1130260000000606000081020408000708898A89A
S1130270C8887020602020202070708808102040DA
S1130280F8F810201008887010305090F81010F80A
S113029080F008088870304080F0888870F8081072
S11302A020404040708888708888707088887808FA
S11302B010600060600060600000606000602040CA
S11302C0081020402010080000F800F800008040CA
S11302D02010204080708808102000207088086852
S11302E0A8A87070888888F88888F08888F088883A
S11302F0F070888080808870E09088888890E0F82A
S11303008080F08080F8F88080E080808070888031
S113031080988870888888F88888887020202020B1
S11303202070381010101090608890A0C0A09088A1
S1130330808080808080F888D8A888888888888889
S1130340C8A898888870888888888870F08888F019
S113035080808070888888A89068F08888F0A09051
S113036088788080700808F0F820202020202088D9
S113037088888888887088888888885020888888B1
S1130380A8A8D88888885020508888888850202039
S11303902020F80810204080F83820202020203821
S11303A000804020100800E02020202020E0205081
S11303B08800000000000000000000F84020100049
S11303C0000000000070087888788080B0C88888B1
S11303D0F000007080808870080868988888780029
S11303E0007088F88070304840E040404000007859
S11303F0887808308080B0C88888882000602020F1
S113040020701000301010906040404850605048F8
S1130410602020202020700000D0A8A88888000038
S1130420B0C8888888000070888888700000F088C8
S1130430F08080000068987808080000B0C88080C8
S113044080000070807008F04040E0404048300078
S11304500088888898680000888888502000008870
S113046088A8A85000008850205088000088887808
S113047008700000F8102040F810202040202010C0
S11304802020202020202040202010202040112443
S11304901FBECFEFCDBFDFE5DEBF00E00CBF10E233
S11304A0A0E0B0E2E8E6F4E100E00BBF02C0079090
S11304B00D92A837B107D9F722E2A8E7B0E201C04C
S11304C01D92AA37B207E1F779D7CCC799CD04C0FA
S11304D061507109810991096115710581059105C1
S11304E0B9F70895BF92CF92DF92EF92FF920F93E4
S11304F01F93CF93DF931F92CDB7DEB700E016E0D2
S11305006894FF24F3F8F801F6826EE070E080E06E
S113051090E0DDDFF801F5826EE070E080E090E0CD
S1130520D6DF0F2EFBE2BF2EF02DB98280EA99E0D0
S113053057D4C12CD12C760100E412E42FE030E032
S113054043E0BE016F5F7F4F80EA99E078D400E614
S113055016E0FF24F394F801F682B982BE016F5FBE
S11305607F4F80EA99E085D4F801F682E0EAF9E069
S1130570818185FFFDCF80EA8093A009E0EAF9E05C
S1130580818186FFFDCFE0EAF9E080E48183808108
S1130590BE016F5F7F4F80EA99E081D48BE289834B
S11305A0BE016F5F7F4F80EA99E063D481E080935E
S11305B06606E0EAF9E0818185FFFDCF86EA809353
S11305C0A009E0EAF9E0818186FFFDCFE0EAF9E0E5
S11305D080E481838081BE016F5F7F4F80EA99E070
S11305E05ED48BE28983BE016F5F7F4F80EA99E01E
S11305F040D481E080936606E0EAF9E0818185FFDA
S1130600FDCF88EC8093A009E0EAF9E0818186FFC0
S1130610FDCFE0EAF9E080E481838081BE016F5F71
S11306207F4F80EA99E03BD48BE28983BE016F5F00
S11306307F4F80EA99E01DD481E080936606E0EA6A
S1130640F9E0818185FFFDCF82EA8093A009E0EA89
S1130650F9E0818186FFFDCFE0EAF9E080E481835F
S11306608081BE016F5F7F4F80EA99E018D48BE2EE
S11306708983BE016F5F7F4F80EA99E0FAD381E0FE
S113068080936606E0EAF9E0818185FFFDCF8FE281
S11306908093A009E0EAF9E0818186FFFDCFE0EADA
S11306A0F9E080E481838081BE016F5F7F4F80EA3F
S11306B099E0F5D38BE28983BE016F5F7F4F80EAB7
S11306C099E0D7D381E080936606E0EAF9E081817E
S11306D085FFFDCF88EF8093A009E0EAF9E08181EE
S11306E086FFFDCFE0EAF9E080E481838081BE01EA
S11306F06F5F7F4F80EA99E0D2D38BE28983BE019A
S11307006F5F7F4F80EA99E0B4D381E080936606FF
S1130710E0EAF9E0818185FFFDCF1092A009E0EACB
S1130720F9E0818186FFFDCFE0EAF9E080E481838E
S11307308081BE016F5F7F4F80EA99E0B0D38BE286
S11307408983BE016F5F7F4F80EA99E092D381E095
S113075080936606E0EAF9E0818185FFFDCF81E2BE
S11307608093A009E0EAF9E0818186FFFDCFE0EA09
S1130770F9E080E481838081BE016F5F7F4F80EA6E
S113078099E08DD38BE28983BE016F5F7F4F80EA4E
S113079099E06FD381E080936606E0EAF9E0818115
S11307A085FFFDCF81E88093A009E0EAF9E081812B
S11307B086FFFDCFE0EAF9E080E481838081BE0119
S11307C06F5F7F4F80EA99E06AD38BE28983BE0131
S11307D06F5F7F4F80EA99E04CD381E08093660697
S11307E0E0EAF9E0818185FFFDCF81E28093A009F1
S11307F0E0EAF9E0818186FFFDCFE0EAF9E080E4F8
S113080081838081BE016F5F7F4F80EA99E047D387
S11308108BE28983BE016F5F7F4F80EA99E029D321
S113082081E080936606E0EAF9E0818185FFFDCFEF
S11308308FEA8093A009E0EAF9E0818186FFFDCF89
S1130840E0EAF9E080E481838081BE016F5F7F4F3D
S113085080EA99E024D30F90DF91CF911F910F91FB
S1130860FF90EF90DF90CF90BF900895CF93DF93E8
S11308701F921F92CDB7DEB78FEF809370008093E5
S1130880710080937200809373008093740080934E
S11308907500809376006CE081E490E065D38FB7B7
S11308A08A83F8949A81E0E5F0E080818260808315
S11308B09FBF818181FFFDCF61E080E490E054D34C
S11308C08FB78983F8949981E0E5F0E080818E7F89
S11308D080839FBF0F900F90DF91CF910895CF93A6
S11308E0DF931F92CDB7DEB79FB79983F8949981B0
S11308F0E82FF0E0E059FF4F609580816823608322
S11309009FBF0F90DF91CF910895FF920F931F9394
S1130910CF93DF931F92CDB7DEB7082FF62E142F97
S11309201AD10F70006B8BE28983BE016F5F7F4F1A
S113093080EA99E09ED281E080936606E0EAF9E0DD
S1130940918195FFFDCF0093A009E0EAF9E0818150
S113095086FFFDCFE0EAF9E080E481838081BE0177
S11309606F5F7F4F80EA99E09AD20F2D0F7702953F
S11309700F7000618BE28983BE016F5F7F4F80EA55
S113098099E077D281E080936606E0EAF9E081811C
S113099085FFFDCF0093A009E0EAF9E0818186FF9D
S11309A0FDCFE0EAF9E080E481838081BE016F5FDE
S11309B07F4F80EA99E073D20F2D0F708BE2898309
S11309C0BE016F5F7F4F80EA99E053D281E080934C
S11309D06606E0EAF9E0818185FFFDCF0093A00976
S11309E0E0EAF9E0818186FFFDCFE0EAF9E080E406
S11309F081838081BE016F5F7F4F80EA99E04FD28F
S1130A008BE28983BE016F5F7F4F80EA99E031D228
S1130A1081E080936506E0EAF9E0818185FFFDCFFE
S1130A201093A009E0EAF9E0818186FFFDCFE0EAB6
S1130A30F9E080E48183808181E080936606BE01D1
S1130A406F5F7F4F80EA99E02AD20F90DF91CF91B8
S1130A501F910F91FF9008950F931F93CF93DF93EE
S1130A601F92CDB7DEB788E790E270D03BDD8BE212
S1130A708983BE016F5F7F4F80EA99E0FAD181E0FC
S1130A8080936606E0EAF9E0818185FFFDCF80E48A
S1130A908093A009E0EAF9E0818186FFFDCFE0EAD6
S1130AA0F9E080E481838081BE016F5F7F4F80EA3B
S1130AB099E0F5D100E00AC040E0612F802F25DFE6
S1130AC01F5F1038C9F70F5F043011F010E0F4CF46
S1130AD00F90DF91CF911F910F910895FF920F9383
S1130AE01F93CF93DF9388234CF1603238F5D42FD2
S1130AF0C82FF62EF694F694F69470E088E0F89EEB
S1130B0060197109112481E090E08C0102C0000F8A
S1130B10111F6A95E2F76C2F8F2D2BD0D13021F065
S1130B2028F0D23031F006C0802B04C00095802319
S1130B3001C08027482F6C2F8F2DE7DEDF91CF91E6
S1130B401F910F91FF90089514C008958093782207
S1130B50909379220895209178223091792290E817
S1130B60899F200D311D1124F901E60FF11D4083E9
S1130B700895209178223091792290E8899F200D60
S1130B80311D1124F901E60FF11D80810895FF92B2
S1130B900F931F93CF93DF93E42FF0E0E80FF11D41
S1130BA0E138F1051CF0C0E84C2F481B442309F43C
S1130BB04AC0D62FD695D695D69570E098E0D99FA1
S1130BC0601971091124E1E0F0E0DF0102C0AA0F0D
S1130BD0BB1F6A95E2F7FA2E213021F098F02230FB
S1130BE019F131C0C42F1FEF180F012F0C0F602F04
S1130BF08D2FAADF4F2D482B602F8D2F86DEC150FD
S1130C00A1F721C0C42F1FEF180FFA2EF094012F63
S1130C100C0F602F8D2F98DF4F2D4823602F8D2FC1
S1130C2074DEC150A1F70FC0C42F1FEF180F012F9E
S1130C300C0F602F8D2F88DF4F2D4827602F8D2FAD
S1130C4064DEC150A1F7DF91CF911F910F91FF9006
S1130C500895FF920F931F93CF93DF93222369F09C
S1130C60F42E182FC22FDFEFD60F6D2F6C0F202F0D
S1130C704F2D812F8CDFC150C1F7DF91CF911F9190
S1130C800F91FF900895AF92BF92CF92DF92EF92AF
S1130C90FF920F931F93CF93DF93C82FE62EB42EAA
S1130CA0690100E0F901248143816B2D8E2DD1DF90
S1130CB0F6018081811139C08381282F26952695DC
S1130CC02695877009F02F5FF601A4808C2F90E0A1
S1130CD03581831B91092A9D90011124829FA001D3
S1130CE0839F500D929F500D112401811281040F96
S1130CF0151FF601F380FF20A1F0D0E0C0E08E2D97
S1130D008C0F9C2F977021F4F801D4910F5F1F4F23
S1130D10DD231CF441E06B2DE1DEDD0FCF5FFC121F
S1130D20EECFB394AA94A110E4CFDF91CF911F9199
S1130D300F91FF90EF90DF90CF90BF90AF90089508
S1130D40DF92EF92FF920F931F93CF93DF93D62EF0
S1130D50042F7901EC01162F89918A3031F4F701BF
S1130D6084818F5F080F1D2D09C08D3039F09701E4
S1130D70402F612F88DFF7018381180F888181114B
S1130D80EBCFDF91CF911F910F91FF90EF90DF9008
S1130D900895CF93DF93FC0120E030E0C62FD0E02C
S1130DA0DE01022E02C0B595A7950A94E2F7A0FDD4
S1130DB0508B2F5F3F4F31962830310589F740FF24
S1130DC00AC041FF03C0FC01658302C0FC016683C5
S1130DD0FC01618302C0FC016283DF91CF9108951D
S1130DE0803A28E0920721F460E183E078CD089509
S1130DF0803B28E0920721F460E283E070CD0895FF
S1130E00803A29E0920721F460E184E068CD0895F6
S1130E10803B29E0920721F460E284E060CD0895EC
S1130E20803A2AE0920721F460E185E058CD0895E4
S1130E30803A9B4019F460E186E051CD08950F9308
S1130E401F93CF93DF9300D000D0CDB7DEB70983D3
S1130E501A832B833C834D831E82BE016F5F7F4FB9
S1130E60BAD02696CDBFDEBFDF91CF911F910F91EF
S1130E700895FB018081E82FE695E695E69540E22A
S1130E80E49FF0011124FA5F877021E030E0A901AA
S1130E9002C0440F551F8A95E2F746830895FB016B
S1130EA08081E82FE695E695E69540E2E49FF0011F
S1130EB01124FA5F877021E030E0A90102C0440FD9
S1130EC0551F8A95E2F74583089543E050E061E0B9
S1130ED080EE97E05EDF43E050E062E080EE97E072
S1130EE058DF43E050E060E180E696E052DF41E005
S1130EF050E460E280E696E04CDF40E05BE160E2D3
S1130F0080E896E046DF40E05BE162E080EA96E05C
S1130F1040DF40E05BE164E080EA96E03ADF43E0F2
S1130F2050E062E080E696E034DF43E050E068E0C1
S1130F3080E696E02EDF43E050E068E080EA96E049
S1130F4028DF43E050E061E080E696E022DF43E002
S1130F5050E068E080E096E01CDF41E050E060E1B2
S1130F6080E896E016CF08951BBEFC0128ED24BF4F
S1130F7060830895CF92DF92EF92FF920F931F93B5
S1130F80CF93DF93EC01D901C801B695A795979546
S1130F908795481759076A077B0770F46A017B0134
S1130FA0CC0CDD1CEE1CFF1CC901B801A701960185
S1130FB037D22150310902C020E030E0832F8F70F6
S1130FC08F832E83DF91CF911F910F91FF90EF902C
S1130FD0DF90CF900895DF92EF92FF920F931F93CB
S1130FE0CF93DF931F92CDB7DEB77C018B010097BF
S1130FF009F4B2C1803C910521F460E180E06FDC2A
S1131000ABC180E8E81681E0F80621F462E080E0F4
S113101066DCA2C1E114E1E0FE0621F461E080E0B7
S11310205EDC9AC1F0E8EF16F3E0FF0621F461E01C
S113103081E055DC91C130E9E31633E0F30621F495
S113104061E082E04CDC88C1E11482E0F80621F41E
S113105062E081E044DC80C1E0E4EE16E2E0FE06FA
S113106021F462E082E03BDC77C1F0E2EF16F3E0CA
S1131070FF0621F464E082E032DC6EC1E11438E062
S1131080F30621F461E083E02ADC66C1E11489E01F
S1131090F80621F461E084E022DC5EC1E114EAE0B8
S11310A0FE0621F461E085E01ADC56C1E114FBE0A0
S11310B0FF0621F461E086E012DC4EC130E4E31661
S11310C038E0F30621F462E083E009DC45C180E402
S11310D0E81689E0F80621F462E084E000DC3CC113
S11310E0E0E4EE16EAE0FE0621F462E085E0F7DBD8
S11310F033C1F0E9EF16F8E0FF0621F464E083E081
S1131100EEDB2AC130E9E31639E0F30621F464E0AA
S113111084E0E5DB21C180E9E8168AE0F80621F4E1
S113112064E085E0DCDB18C1E0E9EE16EBE0FE06E6
S113113021F464E086E0D3DB0FC1F0ECEF16F8E0B5
S1131140FF0621F468E083E0CADB06C130ECE31655
S113115039E0F30621F468E084E0C1DBFDC080EAF5
S1131160E81688E0F80661F460E183E0B8DBE0EAC1
S1131170F8E084818F7E8483F801248122504CC05E
S1131180F0EAEF16F9E0FF0621F460E184E0A7DB62
S1131190E3C030EAE3163AE0F30621F460E185E0C7
S11311A09EDBDAC080EAE8168BE0F80621F460E101
S11311B086E095DBD1C0E0EBEE16E8E0FE0621F414
S11311C060E283E08CDBC8C0F0EBEF16F9E0FF06C9
S11311D021F460E284E083DBBFC030E8E31634E04E
S11311E0F30621F460E483E07ADBB6C080EAE81613
S11311F084E0F80621F460E485E071DBADC0F7011A
S113120084818F7E8483FB0124812250C701F0EA0C
S1131210EF16F8E0FF0649F480914E0684FDA5C060
S11312200F2EF1E1DF2EF02DA4C0803B38E09307B0
S113123091F0803AE9E09E0749F430916E0634FD5E
S11312409BC00F2EF9E1DF2EF02D16C0803BF9E094
S11312509F07F1F004C00F2EF5E1DF2EF02D803A48
S11312603AE0930749F480918E0684FD8AC00F2EDC
S1131270F1E2DF2EF02D15C0803A9B4091F480916D
S1131280AE0684FD0AC00F2EF9E2DF2EF02D09C050
S11312900F2EFDE1DF2EF02D04C00F2EFDE2DF2E18
S11312A0F02DED2DE695E695E69530E2E39FF0010D
S11312B01124FA5F3D2D377081E090E0032E02C0C7
S11312C0880F991F0A94E2F78183223010F040E0DE
S11312D001C040E4DF015096A30FB11D9FB799836D
S11312E0F89439812C9127702C939C91942B9C9386
S11312F03FBF8583F7018581806C8583F8018481F4
S11313008D7F813029F4F70185818260858304C053
S1131310F70185818D7F8583F8018581882329F0F4
S1131320F70185818460858304C0F70185818B7F03
S11313308583F801408151816281738100E012E16B
S11313402AE730E0C70116DEF701848188608483D0
S11313508481806184831AC0F70184818F7E8483B1
S1131360F80124812250C70160CF0F2EF5E1DF2E52
S1131370F02D80EA98E06ACF0F2EFDE1DF2EF02DEC
S11313807BCF0F2EF5E2DF2EF02D8BCF0F90DF9168
S1131390CF911F910F91FF90EF90DF90089520E07F
S11313A030E240E060E087E090E2CADC20E030E236
S11313B040E060E089E490E2C3CC089586DD56DA2B
S11313C04BDBEDDFC0E8D6E06894FF24F4F800EAD4
S11313D016E0888585FD04C0FF82888585FFFDCFE2
S11313E0F801808581FD12C020E030E240E060E039
S11313F087E090E2A5DC20E030E240E060E08FE5A9
S113140090E29EDCF801808581FFFCCFF8018085A5
S113141082FDDFCFC4DFF801808582FFFCCFD9CF06
S1131420A1E21A2EAA1BBB1BFD010DC0AA1FBB1FE4
S1131430EE1FFF1FA217B307E407F50720F0A21B56
S1131440B30BE40BF50B661F771F881F991F1A94C3
S113145069F760957095809590959B01AC01BD01ED
S10B1460CF010895F894FFCFB9
S113146800FC010607207D202020202020202020A9
S11314782020202020202020202020200A20202076
S11314882020202020202020202020202020202050
S113149820200A2020202020202020202020202056
S11314A82020202020202020005472796B6B20708B
S11314B86161206B6E617070656E2020205E00484B
S11314C86569204361726F6C696E652E0A447520E4
S10B14D8657220736F7421009A
S9030000FC
